:100000007827002071270000DB2400000F25000066
:10001000BD260000E3260000EF26000000000000DF
:100020000000000000000000000000004D2800005B
:100030004F28000000000000512800005328000055
:10004000312500005528000029070000572800002E
:10005000592800005B280000711B00005D2800008B
:100060005F28000061280000632800006528000068
:1000700067280000692800006B2800006D28000038
:100080006F2800006127000071280000732800001D
:100090007528000077280000792800007B280000E0
:1000A0007D2800007F2800008128000083280000B0
:1000B0006F1A00008528000000000000000000000A
:1000C00087280000751A00007B1A000089280000AC
:1000D0008B2800008D2800008F2800009128000048
:1000E00093280000952800009728000000000000D9
:1000F0000000000099280000000000009B2800007C
:1001000000000000000000000000000000000000EF
:1001100000000000000000000000000000000000DF
:1001200000000000000000000000000000000000CF
:1001300000000000000000000000000000000000BF
:1001400000000000000000000000000000000000AF
:10015000000000000000000000000000000000009F
:10016000000000000000000000000000000000008F
:10017000000000000000000000000000000000007F
:10018000000000000000000000000000000000006F
:10019000000000000000000000000000000000005F
:1001A000000000000000000000000000000000004F
:1001B000000000000000000000000000000000003F
:1001C000000000000000000000000000000000002F
:1001D000000000000000000000000000000000001F
:1001E000000000000000000000000000000000000F
:1001F00000000000000000000000000000000000FF
:1002000081B00022425040580090009901B07047E0
:100210004058A7E1D0F80403084018BF0120C0B23D
:100220007047C0F81425C0F80C157047C0F80815C1
:10023000C0F810257047D0F81805C0B270470168A3
:100240001F2902D84FF0A040704701F01F01016044
:10025000DFF89C0470472DE9F14181B0089D099CAD
:100260000E461746984601A8FFF7E9FF46EA4706FB
:10027000019946EA880646EA052600EB810046EA2F
:100280000446C0F80067BDE8F381E0B500F00FF860
:10029000012105E0E0B50B4600210022019100920A
:1002A000FFF7D9FF07BDE0B500F001F8F8E700213E
:1002B0000191009100230122704701B56846FFF7C4
:1002C000BEFF009901228A40C0F8082501BD000048
:1002D000F8B504460D46217917462C23DFF814247F
:1002E00013FB01F3D61896F82A0008B10820F2BDD6
:1002F0000FF2304050F82110206800F018FA08B1D1
:100300001120F2BD286810F1010F04D0FFF7D5FFCE
:100310002868FFF7BAFF686810F1010F1CBF0021C1
:10032000FFF7B8FF2068A969C0F824156A7D297D08
:100330000A43C0F86C2529686A68FFF772FF287DB8
:10034000012814D1A86810F1010F1CBF0021FFF78C
:10035000A1FFE86810F1010F04D0FFF7AEFFE868D5
:10036000FFF793FFAA68E9682068FFF75FFF7760EF
:1003700029697068316060B32D7F20684FF48E71F9
:10038000FFF73EFF20684FF4A271FFF739FF2068A6
:10039000DFF86413C0F80413000300166901002895
:1003A00003D4DFF85823115406E0DFF8543300F08B
:1003B0000F00184400F8041C21680903091608D42A
:1003C000012201F01F00DFF83C338240490943F865
:1003D000212004202168C1F8000500220020B2611C
:1003E000F06186F829007061012186F82A10F2BDBB
:1003F0002DE9F84304462C202279DFF8F812424315
:100400008D1821680023C1F80035686898B1DFF8BD
:10041000F822C1F80823090309160CD4012201F0BF
:100420001F00DFF8E8328240490943F82120BFF37A
:100430004F8FBFF36F8F4FF0FF322068D0F80C65FD
:10044000D0F81475D0F80885D0F810951146FFF74C
:10045000E8FE4FF0FF3220681146FFF7E7FE16F185
:10046000010F1CBF3046FFF71EFF17F1010F1CBF25
:100470003846FFF718FF19F1010F1CBF4846FFF778
:1004800012FF18F1010F1CBF4046FFF70CFF206858
:1004900000F066F9002085F82A006860BDE8F18365
:1004A00038B50D4604464FF48E71FFF7A9FEA868D3
:1004B000296A405C2A6A521C2A62C4F81C0531BDB4
:1004C0002DE9F041054617462A790E462C20DFF823
:1004D000241242438C18284600F03EF808B111203F
:1004E00038E06761A6602062002184F828104FF48C
:1004F0008E712868FFF784FE28680121816000263C
:100500002146FFF7CDFF606818BB2F68D4F8148030
:1005100003E021463846FFF7C3FF206A40450CD26E
:100520004FF48E713846FFF773FE0028F1D194F82E
:1005300028000028F4D00F2609E028684FF48E71B7
:10054000FFF766FE0028F8D029680120C860002067
:1005500060613046BDE8F081027966492C20424353
:100560008818406900B10120C0B2704770B50D46CF
:100570000446A86900284FF48471204605D1FFF78E
:100580003FFE2046BDE8704055E6FFF739FE6E6A33
:100590002046FFF750FEE9688855686A401C68628B
:1005A00070BD1FB50346012402918DF800400192F1
:1005B000684619685A6890471FBDF8B5024600237F
:1005C0008DF800300291906801905361684611687F
:1005D0005268904705B000BD7FB54D4D4FF4007196
:1005E0002846FFF717FE434C4FF4017608B34FF44B
:1005F000927100F095F8E0B14FF492712846FFF740
:10060000FFFDC5F8086300F085F802208DF80000B2
:100610000021D5F88004C5F880040390E161A06949
:1006200062680290A161E068216801906846904785
:1006300027E004212846FFF7EDFD10B34FF4847145
:1006400000F06EF8E8B121462846FFF78FFFA06959
:10065000616A884215D1E06940B1E268616AA061CF
:1006600000232069E060E361636207E000F052F874
:10067000C5F808630020E268A061616A2046FFF7C0
:1006800090FF4FF48E7100F04BF8B0B16069216AB1
:10069000814207D294F8280020B921462846FFF766
:1006A000FFFE0AE04FF48E712846FFF7A9FD60694E
:1006B00018B161692046FFF780FF4FF4A27100F086
:1006C0002FF890B14FF4A2712846FFF799FD94F8E6
:1006D000290008B101212960A06930B10021A16180
:1006E0002046E268616AFFF75CFF7FBD0000000002
:1006F00000030050C80600208000020000E400E073
:1007000018ED00E000E100E08402020080E100E07A
:100710000020004094F8290008B901216960704761
:10072000284675E5D905000011480168084738B525
:100730000D461049884211D1002000F025F80C49DF
:1007400008790024002811BF01240D6001200871E0
:10075000002000F020F80CB1112032BD002032BD85
:100760000449884203D102480022026002717047A6
:10077000680700200020004007490868401E086004
:1007800000D162B67047000000BF72B6024801682F
:10079000491C01607047EFE77007002081B000221C
:1007A000425040580090009901B070474058BAE15B
:1007B000C0F80C15C0F814257047C0F80815C0F82B
:1007C0001025704701681F2902D84FF0A0407047DC
:1007D00001F01F010160DFF8800470472DE9F1414D
:1007E00081B0089D099C0E461746984601A8FFF760
:1007F000E9FF46EA4706019946EA880646EA0526E1
:1008000000EB810046EA0446C0F80067BDE8F381CA
:10081000E0B500F00FF8012105E0E0B50B4600213E
:10082000002201910092FFF7D9FF07BDE0B500F06B
:1008300001F8F8E70021019100910023012270479F
:1008400001B56846FFF7BEFF009901228A40C0F853
:10085000082501BDF8B504460D4621791746242325
:10086000DFF8F82313FB01F3D61896F8200008B13F
:100870000820F2BD0FF2104050F821102068FFF759
:1008800056FF08B11120F2BD286810F1010F04D005
:10089000FFF7D6FF2868FFF7BBFF686810F1010F6C
:1008A0001CBF0021FFF7B9FF2068A969C0F8241513
:1008B0006A7D297D0A43C0F86C2529686A68FFF7BC
:1008C00077FF287D012814D1A86810F1010F1CBF03
:1008D0000021FFF7A2FFE86810F1010F04D0FFF735
:1008E000AFFFE868FFF794FFAA68E9682068FFF7A0
:1008F00064FF7760706829693160002838D02D7FE7
:1009000020684FF48871FFF749FF20684FF4907119
:10091000FFF744FF20684FF49271FFF73FFF206814
:100920004FF4A271FFF73AFF00F0F3F82068DFF808
:100930003013C0F80413000300166901002803D423
:10094000DFF82023115406E0DFF81C3300F00F001D
:10095000184400F8041C21680903091608D4012270
:1009600001F01F00DFF804338240490943F82120D9
:1009700008202168C1F800050022B261F2617261AD
:10098000012086F820000020F2BD2DE9F047064640
:1009900024213279DFF8C4024A4385183168686837
:1009A0000C4698B1DFF8B822C1F8082309030916EC
:1009B0000CD4012201F01F00DFF8B4328240490953
:1009C00043F82120BFF34F8FBFF36F8FD4F800029D
:1009D00020F02000C4F80002AA6932B14FF4A271DD
:1009E0002046FFF7DBFE012262604FF4AC71204627
:1009F000FFF7D4FE0120E0604FF4AC712046FFF712
:100A0000D5FE0028F8D0A86930B14FF4A271204675
:100A1000FFF7CCFE0028EFD00020C4F800054FF00F
:100A2000FF323068D0F80C75D0F81485D0F80895EE
:100A3000D0F810A51146FFF7BBFE4FF0FF3230682B
:100A40001146FFF7BAFE17F1010F1CBF3846FFF73A
:100A5000EDFE18F1010F1CBF4046FFF7E7FE1AF14B
:100A6000010F1CBF5046FFF7E1FE19F1010F1CBF3B
:100A70004846FFF7DBFE2046FFF772FE002085F8B0
:100A800020006860BDE8F087F8B504461746227973
:100A90000E462420714942438D1806F06041B1F1A1
:100AA000005F01D01020F2BD204600F036F808B1FA
:100AB0001120F2BD4FF490716F61AE600026206886
:100AC000FFF76CFE00F025F868692168AB6801F259
:100AD00044521360506001228A606868B8B9206887
:100AE0004FF49071FFF762FE074600F03BF8002FCD
:100AF00008BF0028F3D008B10F2606E021680120C6
:100B0000C86000F02FF80028FBD000206861304654
:100B1000F2BD20684FF4AC7140E602794F492420C1
:100B200042438818406900B10120C0B270471FB528
:100B30000346012402918DF800400192684619682D
:100B40005A6890471FBDF8B5024600238DF8003063
:100B5000029190680190536168461168526890470D
:100B600005B000BD20684FF4AC711FE638B5414DAB
:100B700084B04FF4927100F083F8384CC0B14FF458
:100B8000927100F07FF802208DF800000021D5F866
:100B90008004C5F880040390D5F83C056268029093
:100BA000A161E161E068216801906846904721E019
:100BB0004FF4887100F064F8E0B14FF4887100F0F0
:100BC00061F8D5F83C15A069814213D1E268E0696B
:100BD00060B1D5F8000220F02000C5F80002E069FD
:100BE0002369A061E3600020E06100E0A06120468D
:100BF000FFF79DFF4FF4A27100F042F870B14FF47F
:100C0000A27100F03FF8A06940B10021A161E1614B
:100C10002046D5F83C15E268FFF789FF4FF4907144
:100C200000F02EF848B14FF4907100F02BF801213C
:100C3000E960606908B100F01FF84FF4AC7100F092
:100C40001FF838B14FF4AC7100F01CF8606908B1BE
:100C500000F012F805B030BD00030050F40600208B
:100C60001003420000E400E018ED00E000E100E0C5
:100C700080E100E000200040D5F84C15204662E7F6
:100C8000284693E5284689E56D0B0000DFF8AC04A3
:100C9000DFF8AC14401AC008704738B5044689B173
:100CA000FFF7F4FF2568DFF89C24002100E0491CD1
:100CB000814205D232F82130AB42F8D1216001E007
:100CC000052032BD002032BD01B56846FFF7E5FFC3
:100CD00028B9DFF87404009950F8310002BD0020F3
:100CE00002BD0000491EDFF86024032902EBC000AA
:100CF0000BD8DFE801F00204060802207047042048
:100D0000704700797047407970470020704702466D
:100D100000201368C3F3800292B103F0030001289E
:100D200007D0022801BF086800EB9350801C0860C0
:100D300005E00A68C3F383108218921C0A60012040
:100D4000704780B50021DFF8040400F00DFA80F34D
:100D5000100002BD2DE9FF410D469046DFF8D47327
:100D600004460020FFF710FD78682860A61C36E0D6
:100D7000054601980099800DC01C01EB900121E00F
:100D8000009907F10C0001F0FF0100EB81006946BA
:100D9000FFF7BDFF0028F3D1009A07F10C0100F026
:100DA000A7F9F9D90199BDF80A0001F00301012959
:100DB00002D00229DCD006E0054601980099C0F374
:100DC00083104118009107F2144000F00BFA08B1AB
:100DD0000098B860294607F21C4000F0E9F97968EC
:100DE000B868C1F580714118B14216D2012107F2ED
:100DF0001C4000F0DDF907F5836000F0F1F907F21F
:100E0000144000F0EDF9B868009007F10C0100F013
:100E1000FF00002501EB8000B9E7B8F1000F05D015
:100E2000A40104F4707444F0050402E0A40544F045
:100E3000060407F10C00397940F82140786836182B
:100E40007E600020FFF7A7FC012004B0BDE8F08120
:100E50002DE9FC470446884615469A460122694614
:100E60005046FFF777FFDFF8CC6248B30098801C4C
:100E7000002106F10C0207E055F8217000F0FF0395
:100E800042F82370401C491C5145F5D3009DFFF7E3
:100E900058FF06F10C0900F01EF8E40049F827009D
:100EA00024F4707444EA8A14C4F3090406F10C00B3
:100EB00044EA882405F0FF0544F0010440F8254089
:100EC000307818B100F018F80028FBD1BDE8F3879E
:100ED00000230022BCE76F1C000407F0FF0740EA74
:100EE00014407047934881684068814201D10120D5
:100EF00070470020704700002DE9F84384B0FFF7E9
:100F0000F1FFF8B98B4EC6F81804BFF34F8F06F106
:100F10000C01B068009000F0FF0001EB800005E0DC
:100F200006F10C0001F0FF0100EB81006946FFF7BC
:100F3000EEFE48B1D6F8180430B9706800998142C5
:100F4000EED3B0600020CAE00020009A06F10C0148
:100F500000F0CEF8F9D90199774801F00301022990
:100F600043D1019D0199AD0D2F46502DA8BF5025AD
:100F700065F39F51019105F1080100F035F95FEA31
:100F800000084FD000F078F900F0ACF8009901F0BB
:100F9000FF01C1F58070800006F10C02A84202EB4F
:100FA000810117D228B9A94606F10C0100240025B9
:100FB00003E0814606F10C042D1A5FFA89F9082333
:100FC0004A46404600F0AEF94CB109F10803EAB2D6
:100FD000214601E008232A46404600F0A3F9009884
:100FE000FF1C00EB9700009039E0019901F003012C
:100FF000012959D10199019AC1F383110529DABF59
:10100000019901F470714FF4C07122F470721143B0
:1010100001910199C1F38311891C890000F0E4F862
:101020005FEA000840D000F027F900F05BF80827DD
:1010300000240FE00098411C009106F10C0500F01F
:10104000FF0005EB80013B460422404600F06AF9B0
:101050003F1D641C0198C0F383108442EAD3D6F884
:101060001044D6F8180470B1404600F009F931E098
:10107000E0684179012904D122681368414620467D
:101080009847E0680468002CF2D1404600F0F8F878
:101090000020FFF779FBD6F8180408B90098B06073
:1010A0000020FFF778FB15E0D6F8104405E0216832
:1010B0008A6820469047E0680468002CF7D12448ED
:1010C000DFF87C2023A1801AC008000440F0020051
:1010D000FFF7FEFEFFF706FF401E8041C00F05B080
:1010E000BDE8F0830023082201A9404600F01AB9A8
:1010F00002F0FF0251F8221001AA42F82010401C11
:101100000099491C01280091704710B50948D0F892
:1011100010440121017008E0E16801224A71204673
:10112000226851688847E0680468002CF4D110BD3B
:10113000000000003C01002048270000CC250000F2
:1011400074250000000000007425000058050020F0
:101150008C2500004261636B656E647320666C755C
:10116000736865640000000010B5024652E8000F85
:101170000C4642E8004393F0000FF7D110BD000089
:1011800010B5024652E8004F44EA010042E800036D
:1011900093F0000FF6D110BD10B5024652E8000FD3
:1011A00000EA010442E8004393F0000FF6D110BDBD
:1011B00010B5024652E8004F04EB010042E800037C
:1011C00093F0000FF6D110BD10B5024652E8004F63
:1011D000A4EB010042E8000393F0000FF6D110BD2C
:1011E0000121CDE70021D7E72DE9F04105460F4663
:1011F0002E8A00F0A3F8361F040002D10020BDE8BB
:10120000F081F71900200121FF1C20716171A046B7
:10121000B7FBF6F7E680FFB27F1EC8F80050002645
:1012200007E06179491C6171C8F8000005608046DB
:10123000761CBE4208D2284600F080F80028F0D183
:10124000204600F003F8D9E72046D8E7F8B5014674
:101250000D464C79601E002200E0521C2D6882422F
:10126000FBD3002605E00F68284600F087F83946D2
:10127000761CA642F7D3F1BD0121001DFFF798BFF0
:101280001CB504460121201DFFF79EFF00909DF82C
:10129000000018B92046BDE81640D7E713BD2DE978
:1012A000F0471446B0F80680427925684646564312
:1012B000361F5F1903F1040CBE42BCFBF8F234BFC9
:1012C000F31A2B4608FB12CC2360002A01E00068C9
:1012D000521EFCD1A8EB0C029A469342089F4FF095
:1012E000000988BF92460E4605461C4616E005EBEF
:1012F0000C00001D06EB0903390052460EBF1946CB
:101300000146184600F08AF8A4EB0A04D1442D687F
:10131000A24644454FF0000C88BFC246002CE6D1DF
:10132000BDE8F0871CB50192002402E01CB50192D3
:101330000124009401AAFFF7B2FF13BD38B504469B
:101340000020FFF721FA21686268086800258242C0
:101350000FD2421E0A601578208AE36845431D4477
:10136000A36820689A1A0379D2B29A4238BF1A4603
:101370000A710020FFF70FFA284632BD38B504463F
:101380000D460020FFF700FA206801684A1C026041
:10139000E068228A2D1AB5FBF2F20A700020BDE83F
:1013A0003240FFF7F8B9F0B4024610689568131898
:1013B000506803EB5004C0071BD54D4419E013F8E7
:1013C000017B05F8017B491EF9D190B113F8011B8F
:1013D000C6F38106032E08BF13F8016B01EB06214B
:1013E00049422944801C11F8016B05F8016B401E2D
:1013F000F9D1A3420ED013F8016B16F0030104BF1C
:1014000013F8011BC91C30090F28DCD113F8010B9C
:101410000F30D8E7F0BC02F10C0070474AB1000071
:1014200011F8013B521E00F8013B1CBF11F8013BB3
:10143000F8E7704738B50D4604460A2D04BF0D2164
:10144000FFF7F8FFA068411CA1602268155460688E
:10145000814204D32046BDE8324000F079B931BD65
:101460002DE9F84F8B460124154602E0B1FBF5F15A
:10147000641CA942FAD29A460B9FD146A24538BFB6
:10148000A14680460A9CF8070CD45CB1B8070CD47E
:101490002026A14506D231464046FFF7CBFF641E09
:1014A000002CF6D12E46012507E0BAF1000FEFD14E
:1014B0003026EEE7AAF1010A7543BAF1010FF9D817
:1014C000BBFBF5F0B04228BF7543F9D29CA1BBFB32
:1014D000F5F005FB10BB095C4046FFF7ABFFB5FB21
:1014E000F6F5002DF2D1F80709D544B1A14506D291
:1014F00020214046FFF79EFF641E002CF6D1BDE878
:10150000F18F2DE9FE4F0D008246174600F00B814A
:1015100015F8010B010000F0FE80252940F0F58050
:10152000002602E046F001066D1C29782B2907D021
:101530002D29F7D0302908BF46F00206F4D002E08A
:1015400046F00406F0E700240A2007E02978A1F11C
:1015500030020A2A0AD26D1C00FB04242A29F5D184
:10156000396851F8042B396014196D1C29782E291B
:101570004FF000080BD16D1C04E0303900FB08115E
:101580006D1C88462978A1F130020A2AF5D3297802
:1015900001E015F8011F6C2918BF6829F9D0252929
:1015A00006F0010016D0582964D063290DD06429B3
:1015B00018BF69290FD0702900F08E8073295DD083
:1015C000752953D0782955D09DE0386850F8041B10
:1015D0003860C9B295E0396851F8049B39605FEA18
:1015E000090148BF494201220A2302E091FBF3F1BD
:1015F000521C0A29FADAC346904538BF93462CB1EB
:10160000B9F1000F01D4710700D5641EB10702D5EE
:10161000B8F1000F08D038B934B1A34504D200F0B6
:101620008CF8641E002CF8D1B9F1000F03D5C9F174
:1016300000092D2102E0700702D52B2100F07EF871
:1016400006F00300022808BFB8F1000F08D13CB132
:10165000A34505D2302100F071F8641E002CF7D1AB
:101660000196009443460A22494646E000F05DF8A0
:101670000A2242E000F059F810223EE0396851F8A1
:10168000048B3960002140B9B8F1000F03D0404607
:1016900000F07EF801460E4613E0894603E000F0B4
:1016A0004DF809F1010918F8011B0800F7D1A1450F
:1016B00029D244B300F041F8641EF8E700F03DF889
:1016C000641EA64201D2002CF8D118F8011B0800B4
:1016D00019D000F033F8F8E7386850F8044B386058
:1016E000302100F02BF8782100F028F80821009133
:1016F000002001900823102221465046FFF7B0FE3B
:1017000001E000F01BF86D1C01E000F017F82878EC
:1017100000287FF4FDAE9AF80C0020B15046BDE8D9
:10172000FE4F00F015B8BDE8F78F386850F8041B7D
:10173000386001960094434670472021504679E670
:1017400030313233343536373839414243444546F7
:1017500010B50446A2682AB12168206963699847D8
:101760000020A06010BD0000002900D170470CB41B
:1017700038B500BF05A31C68009404AD00956A4607
:10178000FFF7BFFE31BC5DF80CFB0000000000005D
:1017900000F1010310F8011B11B110F8011BFBE768
:1017A000C01A704701224250704781B00022425057
:1017B00040580090009901B07047405800B1012096
:1017C000C0B2704700EB41101168C0F82015938833
:1017D000C0F824359168C0F82815D168C0F82C15D8
:1017E00070470000F8B584B00546DFF894022B7905
:1017F00000EBC306307908B1082090E03260002485
:101800004FF0A04301270A5DFF2A29D022F0800073
:101810004DF824001206844609D5BCF11F0F86BF7F
:101820000CF01F0C03F6080E03F5A16E08E0BCF1E6
:101830001F0F92BF03F20C5E0CF01F0C03F60C0E90
:1018400007FA0CF2CEF8002092BF9C4600F01F0071
:1018500003F5407C0CEB80000322C0F8002703E076
:101860004FF0FF304DF82400641C042CCBDB2868BB
:101870000C4600235DF8231000EB83025B1C042B55
:10188000C2F86015F6DBC0F800752189A27963798A
:10189000C0F80C35C0F80425C0F80815E27AA17A22
:1018A00041EA0221C0F810150021C0F80012C0F86A
:1018B00000134FF48E71FFF778FF28684FF488719A
:1018C000FFF773FF28684FF48A71FFF76EFF2868EF
:1018D0004FF48271FFF769FF3068E8B12868217919
:1018E000000B42B2490140B2002802D4654881543D
:1018F00005E0654B02F00F021A4402F8041C296847
:10190000090B4AB2002A07D401F01F005F4A49B20E
:101910008740490942F8217001203071002005B04C
:10192000F0BD70B5144602220A7106464C711D4680
:10193000086870B18220610748BF9220210748BF24
:1019400040F020003268E10648BF20F08000C2F875
:1019500000034FF482713068FFF727FF30682106DB
:1019600001D5401970BD2946FFF71CFF002070BD4E
:101970002DE9F0411D4604464148237900EBC3069A
:1019800088461746206842460021FFF71BFF00F0FB
:1019900020F807F00100216800EB570292B2C1F86D
:1019A0001425EB0748BF102207D4AA0704D5002846
:1019B0000CBF0422082200E00022C1F800223146B8
:1019C000EAB200282046BDE8F04114BF0C230823EA
:1019D000A7E7206842460121F4E638B50D460446E3
:1019E0004FF48871FFF7E9FE50B14FF4887100F0B1
:1019F0003CF86879410703D5296809B10120884777
:101A00004FF48A712046FFF7D8FE50B14FF48A7127
:101A100000F02BF86879010703D5296809B1022085
:101A200088474FF48E712046FFF7C7FE50B14FF440
:101A30008E7100F01AF86879C10603D4296809B1DB
:101A4000002088474FF482712046FFF7B6FE58B158
:101A50004FF4827100F009F801202871296819B14A
:101A6000BDE834400320084731BD20469DE60449C7
:101A70000748B2E707490848AFE708490848ACE714
:101A80001807002000E400E018ED00E000E100E0AD
:101A900000C001402007002000100240280700205D
:101AA0000020024000F1804000F5C040006801289D
:101AB00018BF002070471CB5044600F00AF804F176
:101AC0008044002104F5C044016020680090009922
:101AD00013BD48E001681F2902D84FF0A0407047AD
:101AE00001F01F010160DFF8CC01704711B581B032
:101AF0000C4601A8FFF7EEFF00F010F8019B00F57F
:101B0000E06221F4403142F8231000F007F800F5BC
:101B1000E06041EA044140F8221013BD00F5E061A5
:101B2000019A51F8221070477CB50FF2A0140346B9
:101B3000D4E90056CDE9005608E05DF82350D5F809
:101B4000206542F8046BC5F820655B1C0D18AB429C
:101B5000F3D373BD0246012002F00703D208984078
:101B6000895C0840704700F1804000F5C040704734
:101B70002DE9FC470025CDE900554FF4807601277B
:101B8000082430B2FFF78EFF00281EBF4B480068C4
:101B9000384203D030B2FFF78EFF3D437F00361D41
:101BA000641EEED14FF4BE70FFF77CFF38B14FF4E6
:101BB000BE70FFF780FF00F085F845F0004528066D
:101BC000DFF8F48016D0012600273D4C2E420DD0C0
:101BD00054F8270054F8271058F82720130005D090
:101BE000090C01F00301C0F30520904776007F1C2B
:101BF000082FEBD3002D5BD54FF0000A4FF0A04922
:101C000008EB0A0090F9605015F1010F43D0ECB2D7
:101C100024F0C00469462046FFF79CFF00283AD014
:101C20002D06AD0F204600F01F061F2892BF494623
:101C3000304609F5407101EB8000D0F800773F0C89
:101C400007F00307022F0CBF032102212046FFF7F4
:101C50004DFF20461F2892BF09F5A461304609F5C3
:101C60000261012202FA00F0086008EB040090F91A
:101C7000301058F8212010000DD0032D08D0022F6D
:101C800002D1012D07D103E0032F08BF022D02D19D
:101C90002946204690470AF1010ABAF1040FAFD352
:101CA00000F010F80098002804BF01980028A3D184
:101CB000BDE8F387000300501C06002004630040C9
:101CC000106500406A46022100202DE70000005008
:101CD000000300507CB504460D46E3884BB100BFBD
:101CE0000FF2D8160FF2DC1278A100962846FFF703
:101CF0003BFD217A05291CD0607A6F4E48B1A0883F
:101D0000FEF7F0FF06EB800065A142692846FFF769
:101D10002BFDA0880021FEF7D7FF0346207A56F856
:101D2000202028460DF1080DBDE870406DA1FFF799
:101D30001BBD73BD38B50C46017A052959A507D0DE
:101D4000407A30B15DA256A12046FFF70DFD00E0BC
:101D50001AB129462046FFF707FD2046BDE832406C
:101D6000FFF7F6BC2DE9F84384B017460C9D2E7B97
:101D7000002281460C4698462A7329464046FFF7C2
:101D8000A9FF062F2CD8DFE807F004090F1A211647
:101D90001D0049462846FFF7E7FC21E02268494636
:101DA0002846FFF7E1FC1BE06368226849462846A5
:101DB000FFF7DAFC14E020690290E1680191A06865
:101DC000009007E06069039021690291E06801904A
:101DD000A16800916368226849462846FFF7C4FC61
:101DE000002229464046FFF7A5FF2E7305B0BDE847
:101DF000F08300002DE9F84F8A46BAF1080F8146BA
:101E000098464AD80092002298F80CB038A588F875
:101E10000C2041460098FFF75DFF002722A457459C
:101E200006D219F8072029464046FFF79DFC03E03B
:101E300021464046FFF798FC7F1C082FEFD31BA1DB
:101E40004046FFF791FC002619A71AA4564516D262
:101E500019F806507F2D0BDAA5F120005F2808D372
:101E6000284600F049F820B9284600F04FF800B99C
:101E70002E252A4621464046FFF776FC03E03946E8
:101E80004046FFF771FC761C082EDFD30098012234
:101E90004146FFF74FFF88F80CB0BDE8F18F000016
:101EA000257300000D0A0000202020007C000000A7
:101EB0002000000025630000200000201B5B306D27
:101EC000000000001B5B313B33316D0025734C6F0C
:101ED00067732064726F70706564202825642925FB
:101EE000730D0A003C25733E2025733A2000000044
:101EF000202530327800000010B5044600F02FF89D
:101F0000014620460969BDE81040084710B504465F
:101F100000F025F801462046C969BDE81040084791
:101F2000613807E005E0A0F161011A2901D2012022
:101F3000704741381A288041C00F7047A0F1210135
:101F40000F290AD3A0F13A02062A06D9A0F15B01B3
:101F5000062902D37B380428EDE7012070470148A9
:101F600070470000F400002010B5574A5749106828
:101F7000082804D100230B604B60C1F82C34106892
:101F8000082833D15248D2F8D4320360D2F8D8426C
:101F90004460D2F8DC328360D2F8E042C460D2F808
:101FA000E4320361D2F8E8424461D2F8EC320362D1
:101FB000D2F8F0424462D2F8F4328362D2F8F842A6
:101FC000C462D2F8FC320363D2F800434463D2F80F
:101FD00004330364D2F808434464D2F80C338364B6
:101FE000D2F81043C464D2F814330365106808288B
:101FF00004BF5068002802D13648374B036014688C
:10200000082C04BF5068002802D13448FB23036029
:102010001468082C04BF506800280AD1D1F8D80DE4
:1020200092F82831000903F00F0343EA0010C1F8C9
:10203000D80D1068082804BF5068002803D128482C
:102040004FF4007303601268082A07D1D1F8F40234
:10205000C20744BF6FF00100C1F8F4022149C86F04
:1020600040F47000C867BFF34F8FBFF36F8F1E4AF5
:10207000106800285CBF506800281DD51B4B012448
:10208000C3F8044100F036F81224146000F032F86E
:10209000546000F02FF80022C3F8042100F02AF861
:1020A000BFF34F8F0A68124802F4E06202430A60ED
:1020B000BFF34F8F00BFFDE7014A0249116010BD19
:1020C000580000200090D003300100100C010040A7
:1020D00020C500408C5600404881030018F50040A0
:1020E000409602400CED00E00012001000E40140B8
:1020F0000400FA0518680028FCD0704718B9384960
:10210000042081F88C00704738B53648344C0321E0
:10211000C0F834124FF48032026000204FF40041C6
:10212000C2B2401C04EB4203C5B22D2D1986F7DB69
:10213000DFF8B42031A104F19000FFF753FB08B1A0
:1021400000F062F8042084F88C00002032BD00000A
:1021500010B5234C25A1022084F88C000123012214
:1021600004F19000FFF704FC94F88C000428FBD1E4
:1021700010BD10B500201A4948F2060283B2401C77
:1021800084B221F81320182CF8D310BD2DE9F041AA
:10219000002648F2060448F20F0584464FF0180E58
:1021A0000F4F0EFB0C6C07EB4C0701FA06F85FEAC9
:1021B000086C4CBF3D823C8202FA06FC5FEA0C6C64
:1021C0004CBF3D803C8003FA06FC5FEA0C6E4CBFBE
:1021D0003D843C84761C082EDFDBBDE8F0810000E6
:1021E0005C0000200C050050FD2000005C00002079
:1021F00045000000000000000000000010FFFFFF8D
:1022000000000000140000001FB5694600220023F2
:10221000002481E81C0002906A46002144F201007B
:1022200000F002F81FBD430072B6FEF76EFFFEF726
:1022300063FE0028FBD11048104C1149114D041BBE
:10224000E408240444F00100FEF742FED5F8E4005F
:10225000C10700D500BE0C4944F00200FEF738FE6D
:10226000BFF34F8F2968094801F4E06101432960F9
:10227000BFF34F8F00BFFDE78C25000074250000E1
:10228000FC2600000CED00E0082700000400FA0521
:102290002D4901200870704738B588B0044668465B
:1022A0002EA12022FFF7BAF84FF0FF3101910291E1
:1022B0000391062500954FF0EB710691220014BFA3
:1022C000224A0022204D6946281D00F06DF808B111
:1022D000FFF79AFF6C7009B030BD70B51A4C1C4DF9
:1022E00000202070D2B22679AB5D23B104F1080042
:1022F000FEF7CAFB03E004F11000FEF7E1F808B1B5
:10230000FFF782FF617811B120780028FCD070BD02
:1023100080B5104A009240230F4A00F075F801BDC5
:10232000704780B508490A4A0B79D05C20B101F1A9
:102330000800FEF72AFB03E001F11000FEF758F851
:10234000BDE802400020A7E7000000209122000025
:1023500030070020DB22000088060020FFFFFFFF7F
:10236000FFFFFFFFFFFFFFFFFFFFFFFF0000000079
:10237000000000000000D60106010000F8B500E0F2
:10238000F8B502788DF800204368019382688DF8D3
:102390000820C068194A039002EB81026846D168A0
:1023A0005268904705B000BDF8B5044688B026785D
:1023B000124F07EB8600154645600A69C26020226D
:1023C000487FB8556846FFF729F804962678B85D27
:1023D00040B1002D14BF0A4A00226946201DFEF7B5
:1023E00039FA08E0002D14BF064A0022694604F1BC
:1023F0000C00FDF76DFF09B0F0BD000030070020B4
:102400007D23000081230000F0B595B00D461A9C95
:1024100016461F462846FEF72FFF09A8182100F090
:1024200059F809960A970E940023082201A9284614
:10243000FEF77CFF0398BDF80A1004900826BDF84B
:102440000800ADF8140000220198ADF8161000F055
:10245000030001288DF8192017D10198019CC0F3C1
:10246000C2008DF8180008230198C0F38316B2004B
:102470000FA92846FEF75AFF09A8009004AB324680
:102480000FA9A00AFFF76EFC1FE0019800F00300FF
:1024900002281AD10198019CC0F3C200A40D8DF846
:1024A00018000827082C98BF274633463A4607A944
:1024B0002846FEF73BFF09AB04AA394607A8FFF7F9
:1024C00099FCBE19E41B002CEBD12846FEF7D8FE80
:1024D00015B0F0BD002200F001B8FEE700B500BF66
:1024E000130096469446103928BFA0E80C50FAD83D
:1024F0005FEA417C28BF0CC048BF40F8042BC907E5
:1025000028BF20F8022B48BF00F8012B00BDFEE7D2
:102510004FF0804181B000220A5008580090009985
:1025200001B070474FF48270F2E74FF48070EFE72C
:1025300038B50F4D0D4C286848B1FFF7F6FF012163
:10254000C5F80812607910B961712268904768680F
:1025500048B1FFF7E7FF0220C5F808020120216813
:10256000BDE83440084731BD00000000600700208E
:102570000001004090270000000000009C270000A0
:1025800000000000C02700000000000040280000FC
:1025900000000303B4270000000000002028000012
:1025A000000000002828000000000000442800006F
:1025B0000000000048280000000000003028000053
:1025C00000000000382800000000000000000000AB
:1025D00038B5FFF799FD0C4DFFF7CBFD2868401C7F
:1025E0002860FF23002200210020FFF7CFFDFFF726
:1025F000AFFD642406A14FF47A4041F00101884701
:10260000641EF7D1E8E70000740700200000000016
:102610000338FDD87047000030B4002512E050F8B0
:10262000042BD30744BF4A44521E091F042942F811
:10263000045BFAD213468C0744BF15809B1CC90764
:1026400048BF1D7050F8041B0029E8D130BC70470A
:1026500010B5074979441831064C7C44163404E01F
:102660000A68081D114488470146A142F8D110BDEF
:102670002C000000480000004EF68851CEF2000108
:10268000086840F470000860BFF34F8FBFF36F8F8E
:102690004FF00070E1EE100A704700007DFFFFFF71
:1026A0003C0600003C01002000000000FBECFFFFA6
:1026B000EC010000CC00000000000020FEE700005C
:1026C0000120C046002801D0FFF7C2FFAFF3008011
:1026D0000020AFF30080FFF77BFF00F000F800F070
:1026E00001B8FEE70746384600F002F8FBE7FEE7D0
:1026F0002021090326311820ABBEF9E74661746139
:102700006C206572726F720053797374656D2072FC
:1027100065736574000000000548014603B468460F
:1027200080F30988AFF30080FFF7A6FFFFF7C8FF2B
:10273000A5EDF5FE756172745F6C6F675F62616332
:102740006B656E64000000005807002050070020F1
:10275000580700205C050020180000000000000061
:102760000249086889680847000000004407002003
:102770000148804701480047691F000019270000F1
:10278000A8270000000000003427000018000020E7
:102790006170705F627574746F6E00006170705F5D
:1027A00074696D657200000011230000232300008E
:1027B00021230000736F72746C6973740000000051
:1027C000636C6F636B0000006572726F72000000D3
:1027D0007761726E696E6700696E666F0000000057
:1027E00064656275670000001B5B313B33306D0030
:1027F0001B5B313B33326D001B5B313B33336D0070
:102800001B5B313B33346D001B5B313B33356D005B
:102810001B5B313B33366D001B5B313B33376D0047
:10282000434C4F434B0000004750494F5445000074
:1028300055415254000000005541525445000000DB
:10284000617070005052530050574D00FEE7FEE794
:10285000FEE7FEE7FEE7FEE7FEE7FEE7FEE7FEE750
:10286000FEE7FEE7FEE7FEE7FEE7FEE7FEE7FEE740
:10287000FEE7FEE7FEE7FEE7FEE7FEE7FEE7FEE730
:10288000FEE7FEE7FEE7FEE7FEE7FEE7FEE7FEE720
:10289000FEE7FEE7FEE7FEE7FEE7FEE76200013047
:1028A000012000400C6108110152FF091003C827E4
:1028B0000000D00412D80412E0041003BC1E000073
:1028C000E80812C40812F00812F8041003002800E7
:1028D000000804121004121804F0037A0090D003C8
:1028E000000122058D33C001DC9003262200000187
:1028F0009D43271F0D122108523D0CF309251FBED1
:02290000613C38
:0400000500002719B7
:00000001FF
