:1000000008280020214700004B1D0000D7270000D2
:10001000AB340000E33700004B3800000000000064
:10002000000000000000000000000000BF440000CD
:10003000C744000000000000FB4400001D46000013
:100040001D3E000063460000910900006F4600005D
:10005000794800007B4800002D3700007D480000F3
:100060007F48000081480000834800008548000068
:1000700087480000894800008B4800008D48000038
:100080008F4800007B2F000091480000934800003B
:100090009548000097480000994800009B480000E0
:1000A0009D4800009F480000A1480000A3480000B0
:1000B00087220000A54800000000000000000000AA
:1000C000A7480000932200009F220000A9480000DA
:1000D000AB480000AD480000AF480000B148000048
:1000E000B3480000B5480000B74800000000000019
:1000F00000000000B948000000000000BB480000FC
:1001000000000000000000000000000000000000EF
:1001100000000000000000000000000000000000DF
:1001200000000000000000000000000000000000CF
:1001300000000000000000000000000000000000BF
:1001400000000000000000000000000000000000AF
:10015000000000000000000000000000000000009F
:10016000000000000000000000000000000000008F
:10017000000000000000000000000000000000007F
:10018000000000000000000000000000000000006F
:10019000000000000000000000000000000000005F
:1001A000000000000000000000000000000000004F
:1001B000000000000000000000000000000000003F
:1001C000000000000000000000000000000000002F
:1001D000000000000000000000000000000000001F
:1001E000000000000000000000000000000000000F
:1001F00000000000000000000000000000000000FF
:10020000010049B200290AD4012210F01F018A40DE
:10021000DFF8541703005BB25B0941F823207047F5
:10022000010049B200290ED4012210F01F018A40BA
:10023000DFF8381703005BB25B0941F82320BFF3F6
:100240004F8FBFF36F8F704710B4020052B2002A75
:1002500006D44A01DFF81837040064B21A5509E0E1
:100260004A01DFF81037040064B214F00F0423448D
:1002700003F8042C10BC7047000B40B2704738B52F
:1002800004000D002900C9B2200040B2FFF7DCFFD6
:1002900031BD10B50400200040B2FFF7B1FF10BD22
:1002A00010B50400200040B2FFF7BAFF10BD81B0C6
:1002B00000220B001BB2C2500A0012B282580092F8
:1002C000009A01B0704709B24058002801D00120BF
:1002D00000E00020C0B27047C0F804137047D0F8A7
:1002E0000403084201D0012000E00020C0B27047A2
:1002F000C0F8081370470100D1F88004C1F88004E9
:1003000070470421C0F8001570470021C0F800159F
:100310007047C0F81425C0F80C15704710B50400DC
:100320005FF0FF325FF0FF312000FFF7F2FF10BDFA
:10033000D0F80C057047D0F814057047D0F80805C0
:100340007047D0F810057047C0F80815C0F81025A0
:10035000704710B504005FF0FF325FF0FF312000FE
:10036000FFF7F2FF10BDD0F81805C0B270470A00C1
:10037000D2B2C0F81C25704701220B00DBB2C2507C
:10038000704710B40C00E4B21300DBB21C43C0F899
:100390006C4510BC7047C0F8241570470100086810
:1003A000202802D25FF0A04005E0087810F01F007E
:1003B0000860DFF8C40570472DE9F14181B00E00F7
:1003C00017009846089C099D01A8FFF7E7FF310038
:1003D000C9B23A00D2B251EA42014246D2B251EA1F
:1003E00082012200D2B251EA02212A00D2B251EA9D
:1003F0000241019A00EB8202C2F80017BDE8F381C6
:100400001CB5040000200190002000900023012270
:1004100001212000FFF7D0FF13BD3EB504000D0001
:1004200000200190002000902B00DBB20022002170
:100430002000FFF7C1FF37BD1CB50400002001906C
:10044000002000900023012200212000FFF7B4FFCC
:1004500013BD11B581B001A8FFF7A0FF0400012171
:1004600001988140200000F001F813BDC0F8081584
:10047000704738B504000D00286810F1010F05D051
:100480002868FFF7E6FF2868FFF7BAFF686810F1F1
:10049000010F03D000216868FFF7BFFFA96920683A
:1004A000FFF779FF2A7D697D2068FFF76AFF6A6898
:1004B00029682068FFF72DFF287D012816D1A8683C
:1004C00010F1010F03D00021A868FFF7A6FFE8682C
:1004D00010F1010F05D0E868FFF7BBFFE868FFF7F0
:1004E0008FFFAA68E9682068FFF72EFF31BD38B595
:1004F00004000D004FF48E712068FFF7D8FE4FF412
:10050000A2712068FFF7D3FEDFF870142068FFF7B0
:10051000E3FE2068FFF7B0FE2900C9B240B2FFF742
:10052000AEFE2068FFF7A8FE40B2FFF7B2FE31BD75
:1005300010B50400DFF848142068FFF7D9FE2068E2
:10054000FFF79AFE40B2FFF7ABFE10BD2DE9F04178
:1005500004002068FFF7ECFE05002068FFF7EBFEC3
:1005600006002068FFF7EAFE07002068FFF7E9FEB3
:1005700080462068FFF7D2FE2068FFF7EAFE15F1FB
:10058000010F02D02800FFF757FF16F1010F02D02C
:100590003000FFF751FF18F1010F02D04046FFF77E
:1005A0004BFF17F1010F02D03800FFF745FFBDE800
:1005B000F0812DE9F04104000D001600DFF8C413AE
:1005C00022792C20424301EB02075FF0000897F8E4
:1005D0002A00002801D0082029E0DFF8AC032179A7
:1005E00050F82110206800F0E5F9002801D0112012
:1005F0001DE029002000FFF73CFF7E60286938607D
:100600007868002803D0297F2000FFF770FF20685A
:10061000FFF777FE0020B8610020F861002087F81E
:10062000290000207861012087F82A004046BDE8B3
:10063000F08138B50400DFF84C1322792C204243B6
:1006400001EB02052068FFF760FE6868002802D011
:100650002000FFF76DFF2000FFF778FF206800F013
:10066000CAF9002085F82A000020686031BD70B505
:1006700004000D004FF48E712000FFF718FEA868EB
:10068000296A465C286A401C28623100C9B22000F1
:10069000FFF76DFE70BD70B504000D006E69286A2D
:1006A000B04211D24FF48E712000FFF70CFE0028EB
:1006B00005D195F828000028F4D0002005E0290095
:1006C0002000FFF7D4FFEAE7012070BD2DE9F041DB
:1006D00004000D001600DFF8AC1222792C204243F2
:1006E00001EB0207200000F036F8002801D01120AD
:1006F0002FE07E61BD6000203862002087F828006E
:100700005FF000084FF48E712068FFF7D0FD0821DC
:100710002068FFF731FE39002068FFF7A8FF7868EE
:10072000002815D139002068FFF7B5FF002802D155
:100730000F2080460AE04FF48E712068FFF7C3FD5A
:100740000028F8D00C212068FFF716FE0020786101
:100750004046BDE8F081DFF82C1202792C2042439C
:1007600001EB02004069002801D0012000E00020D8
:10077000C0B2704770B504000D00A869002808D108
:100780004FF484712000FFF792FD2000FFF7EBFD8E
:100790000DE04FF484712000FFF789FD6E6A2000A0
:1007A000FFF7E1FDE9688855686A401C686270BD22
:1007B0007FB504000D00160001208DF800000295A1
:1007C000019621686846626890477FBD38B584B05D
:1007D00004000D0000208DF800000295A068019033
:1007E00000206061216868466268904705B030BDAE
:1007F000F8B584B004000D004FF400712000FFF73D
:100800006EFD00282CD04FF492712000FFF75BFDA5
:10081000002825D04FF492712000FFF748FD4FF4D7
:1008200001712000FFF764FD95F82900002803D12D
:1008300004212000FFF7A0FD02208DF80000200019
:10084000FFF759FD0390A8690290E8680190002025
:10085000A8610020E861296868466A6890473BE023
:1008600004212000FFF73BFD002835D04FF48471B0
:100870002000FFF728FD00282ED029002000FFF7D8
:1008800079FFA869696A884226D1E86900280FD0F3
:10089000EE686F6AE869A8612869E8600020E8618D
:1008A00000206862320039002800FFF781FF13E062
:1008B00095F82900002803D104212000FFF75CFDF2
:1008C0004FF401712000FFF713FD0020A861EA68D2
:1008D000696A2800FFF76CFF4FF48E712000FFF764
:1008E000F2FC002818D06E69286AB04208D295F848
:1008F0002800002804D129002000FFF7B8FE0BE0F3
:100900004FF48E712000FFF7D2FC6869002803D0F5
:1009100069692800FFF75AFF4FF4A2712000FFF722
:10092000D2FC002816D04FF4A2712000FFF7BFFCC4
:1009300095F82900002803D000212000FFF71CFDB6
:10094000A869002806D00020A861EA68696A280022
:10095000FFF72EFF05B0F0BD80B50A490B48FFF741
:1009600047FF01BD0000000000E100E080E100E081
:1009700000E400E018ED00E00003005080000200F9
:100980008402020018070020704800000020004088
:1009900080B506480068804701BD010004488142D7
:1009A00001D1024800E0002070470000E807002065
:1009B00000200040F8B505000E002800FFF7EDFF0D
:1009C0000400002C15D00027002000F06FF82079DB
:1009D000002802D00120070002E0266001202071DB
:1009E000002000F068F83800C0B2002801D01120C3
:1009F00000E00020F2BD10B504002000FFF7CDFF9D
:100A0000002803D0002101600021017110BDF0B465
:100A10000246106895681318506803EB5004C0072D
:100A20001BD54D4419E013F8017B05F8017B491EE5
:100A3000F9D190B113F8011BC6F38106032E08BF4C
:100A400013F8016B01EB062149422944801C11F87F
:100A5000016B05F8016B401EF9D1A3420ED013F8CB
:100A6000016B16F0030104BF13F8011BC91C300908
:100A70000F28DCD113F8010B0F30D8E7F0BC02F1DE
:100A80000C00704772B608480068401C06490860B0
:100A9000704705480068401E034908600248006826
:100AA000002800D162B67047F807002010B5040096
:100AB000FFF7E8FF10BD10B50400FFF7EAFF10BD17
:100AC000010049B200290AD4012210F01F018A4016
:100AD000DFF8441703005BB25B0941F8232070473D
:100AE000010049B200290ED4012210F01F018A40F2
:100AF000DFF8281703005BB25B0941F82320BFF33E
:100B00004F8FBFF36F8F704710B4020052B2002AAC
:100B100006D44A01DFF80837040064B21A5509E028
:100B20004A01DFF80037040064B214F00F042344D4
:100B300003F8042C10BC704710F06040B0F1005F67
:100B400001D1012000E00020C0B27047000B40B28C
:100B5000704738B504000D002900C9B2200040B22A
:100B6000FFF7D2FF31BD10B50400200040B2FFF7FF
:100B7000A7FF10BD10B50400200040B2FFF7B0FF82
:100B800010BD81B000220B001BB2C2500A0012B28D
:100B900082580092009A01B0704709B2405800286C
:100BA00001D0012000E00020C0B27047D0F8002240
:100BB0008A43C0F800227047C0F804137047C0F899
:100BC000081370470100D1F88004C1F88004704711
:100BD0000821C0F8001570470021C0F800157047C3
:100BE000C0F80C15C0F81425704710B504005FF06C
:100BF000FF325FF0FF312000FFF7F2FF10BDD0F8A9
:100C00000C057047D0F814057047D0F808057047F8
:100C1000D0F810057047C0F80815C0F810257047C7
:100C200010B504005FF0FF325FF0FF312000FFF7E6
:100C3000F2FF10BD01220B00DBB2C250704710B4AE
:100C40000C00E4B21300DBB21C43C0F86C4510BCCE
:100C50007047C0F824157047C0F84415C0F84825FF
:100C60007047D0F84C057047D0F83C05704701003C
:100C70000868202802D25FF0A04005E0087810F054
:100C80001F000860DFF8A00570472DE9F14181B031
:100C90000E0017009846089C099D01A8FFF7E7FF82
:100CA0003100C9B23A00D2B251EA42014246D2B250
:100CB00051EA82012200D2B251EA02212A00D2B2C4
:100CC00051EA0241019A00EB8202C2F80017BDE826
:100CD000F3811CB504000020019000200090002347
:100CE000012201212000FFF7D0FF13BD3EB5040013
:100CF0000D0000200190002000902B00DBB20022AC
:100D000000212000FFF7C1FF37BD1CB50400002003
:100D10000190002000900023012200212000FFF715
:100D2000B4FF13BD11B581B001A8FFF7A0FF040007
:100D3000012101988140200000F001F813BDC0F8A6
:100D40000815704738B504000D00286810F1010F30
:100D500005D02868FFF7E6FF2868FFF7BAFF686844
:100D600010F1010F03D000216868FFF7BFFFA969E8
:100D70002068FFF76EFF2A7D697D2068FFF75FFF1F
:100D80006A6829682068FFF72BFF287D012816D1A3
:100D9000A86810F1010F03D00021A868FFF7A6FF93
:100DA000E86810F1010F05D0E868FFF7BBFFE868BD
:100DB000FFF78FFFAA68E9682068FFF72CFF31BDB5
:100DC00038B504000D004FF488712068FFF7D9FE94
:100DD0004FF490712068FFF7D4FE4FF492712068B1
:100DE000FFF7CFFE4FF4A2712068FFF7CAFE4FF461
:100DF000AC712068FFF7C5FEDFF830142068FFF7FC
:100E0000DBFE2068FFF7A2FE2900C9B240B2FFF75F
:100E1000A0FE2068FFF79AFE40B2FFF7A4FE31BDA6
:100E200010B50400DFF804142068FFF7C8FE20683E
:100E3000FFF78CFE40B2FFF79DFE10BD2DE9F0419B
:100E400004002068FFF7DBFE05002068FFF7DAFEEC
:100E500006002068FFF7D9FE07002068FFF7D8FEDC
:100E600080462068FFF7C1FE2068FFF7D9FE15F124
:100E7000010F02D02800FFF748FF16F1010F02D042
:100E80003000FFF742FF18F1010F02D04046FFF794
:100E90003CFF17F1010F02D03800FFF736FFBDE825
:100EA000F0812DE9F04104000D001600DFF88013F9
:100EB00022792420424301EB02075FF0000897F8F3
:100EC0002000002801D0082026E0DFF868032179FF
:100ED00050F821102068FFF76DFD002801D0112087
:100EE0001AE029002000FFF72DFF7E602869386096
:100EF0007868002803D0297F2000FFF761FF206871
:100F0000FFF766FE0020B8610020F86100207861DC
:100F1000012087F820004046BDE8F08170B504004C
:100F2000DFF80C1322792420424301EB02052668E6
:100F30006868002802D02000FFF772FF20213000EF
:100F4000FFF734FEA869002808D04FF4A2713000E2
:100F5000FFF717FE04213000FFF76CFE4FF4AC7171
:100F60003000FFF70EFE0C213000FFF763FE4FF458
:100F7000AC713000FFF711FE0028F8D0A8690028F6
:100F800006D04FF4A2713000FFF707FE0028EED024
:100F90003000FFF721FE2000FFF750FF3000FFF781
:100FA0002AFD002085F820000020686070BD2DE932
:100FB000F04704000D001600DFF874122279242097
:100FC000424301EB02072800FFF7B6FD002801D1DC
:100FD000102049E0200000F049F8002801D011203D
:100FE00042E07E61BD605FF000084FF490712068C0
:100FF000FFF7C7FD4FF4AC712068FFF7C2FD7A69B7
:10100000B9682068FFF728FE08212068FFF712FE64
:101010007868002827D14FF490712068FFF7BDFD54
:1010200082464FF4AC712068FFF7B7FD8146504609
:10103000C0B2002803D14846C0B20028EBD04846D1
:10104000C0B2002802D00F2080460AE00C212068A0
:10105000FFF7F0FD4FF4AC712068FFF79EFD00280C
:10106000F8D0002078614046BDE8F087DFF8C01175
:1010700002792420424301EB02004069002801D09C
:10108000012000E00020C0B270477FB504000D00D1
:10109000160001208DF8000002950196216868462F
:1010A000626890477FBD38B584B004000D00002011
:1010B0008DF800000295A068019000206061216811
:1010C00068466268904705B030BDF8B584B004004A
:1010D0000D004FF492712000FFF75FFD00281AD039
:1010E0004FF492712000FFF74CFD02208DF80000B4
:1010F0002000FFF767FD03902000FFF7B5FD029089
:10110000E86801900020A8610020E861296868462D
:101110006A6890472DE04FF488712000FFF73DFD8D
:10112000002826D04FF488712000FFF72AFD200008
:10113000FFF79AFD0600A86986421AD1E8690028DF
:1011400010D0EF6820212000FFF730FDE869A8618A
:101150002869E8600020E8613A0031002800FFF7C4
:1011600094FF06E00020A861EA6831002800FFF73C
:101170008CFF4FF4A2712000FFF70FFD002813D061
:101180004FF4A2712000FFF7FCFCA86900280BD0E7
:101190000020A8610020E8612000FFF765FDEA68F3
:1011A00001002800FFF771FF4FF490712000FFF756
:1011B000F4FC002812D04FF490712000FFF7E1FCFE
:1011C0000C212000FFF736FD6869002806D02000BA
:1011D000FFF747FD01002800FFF765FF4FF4AC71F2
:1011E0002000FFF7DAFC00280ED04FF4AC7120008D
:1011F000FFF7C7FC6869002806D02000FFF731FD23
:1012000001002800FFF74FFF05B0F0BD80B5084989
:101210000948FFF75AFF01BD00E100E080E100E06E
:1012200000E400E018ED00E000030050100342006D
:1012300044070020744800000020004038B5040036
:101240000D002900200022681268904731BD10B5BA
:101250000400200021688968884710BDC068407973
:101260007047DFF8C006DFF8C016401AC0087047A4
:1012700070B504000D002800C0B2002814D0FFF79C
:10128000F0FF010000228A420CD2DFF8A00600EB3A
:10129000820318882668B04202D12260002004E050
:1012A000521CF0E7052000E0002070BD11B581B0B0
:1012B0000C002100C9B201A8FFF7DAFF002806D10F
:1012C000DFF86C06019900EBC100006800E0002027
:1012D00016BD0200DFF8580600EBC2030800C0B2DA
:1012E000012806D00DD3032807D004D3042806D044
:1012F00007E0022006E0042004E0187902E05879B3
:1013000000E00020C0B2704710B4030000201A684B
:10131000C2F38002002A18D01A7812F00302012AC0
:1013200002D0022A08D00EE00C681A68C2F38312B9
:101330001419A41C0C6006E00A681C6812EB945295
:10134000921C0A60FFE701221000C0B210BC704777
:10135000F8B584B00024DFF8DC0500F03CFBDFF8D2
:10136000D80500F038FBDFF8B40580680090DFF89E
:10137000CC050568DFF8A4050099294000EB810041
:1013800010F10C0669463000FFF7BEFF002808D0B8
:10139000DFF888050099294000EB81000C30060039
:1013A000F0E70027022F0ED2DFF8700500992940E0
:1013B00000EB8100C06801A941F827000098401C9B
:1013C00000907F1CEEE7019810F0030001280CD07C
:1013D000022814D1BDF80A00040000980199890D73
:1013E000C91C10EB9100009009E0BDF80A00040050
:1013F00000990198C0F3831041180091FFE7DFF8CE
:10140000380500F0EFFA0100002903D00098DFF85A
:101410000C259060A4B2200005B0F0BD80B500217D
:10142000DFF81C0500F094FA010081F3100002BD02
:101430002DE9F84304000D0016001F00DDF82080A0
:10144000A1465FEA1949FFF7E9FFDFF8D0147A1CDB
:1014500018EA020201EB820159EA0042CA60DFF891
:10146000BC1418EA070201EB82010C310A00136870
:1014700064F3C50313600A00136866F389131360ED
:101480000A00136865F39F2313600A000123D2F852
:1014900000C063F3010CC2F800C00A00136833F007
:1014A00004031360BDE8F1832DE9F04704000D004B
:1014B0009146A61C01270020FFF7F8FADFF85C042C
:1014C00040682860DFF874040068401CDFF84C14A2
:1014D000D1F80480B0EB0808DFF84004806810EB16
:1014E0000808B0451AD20121DFF8540400F058FA78
:1014F000FFF72EFF82465146DFF8440400F050FA11
:10150000DFF838040168491CDFF810044068091A44
:10151000DFF80804806841188846E2E73800C0B266
:10152000002827D000214846C0B2002807D001205B
:1015300060F3010151F0040164F3891106E0022017
:1015400060F3010151F0040164F39F51DFF8CC23F3
:10155000DFF8C8034368DFF8E4030068034002EBE8
:1015600083000C300160DFF8B4235268B218DFF852
:10157000AC335A600020FFF79EFA3800C0B2BDE8D5
:10158000F0872DE9FC4704000D0016001F00DFF86E
:10159000AC03D0F80080012201A93800FFF784FFD6
:1015A00000281DD0DDF8049019F102095FF0000A4F
:1015B000BA450DD2DFF8640318EA090100EB810097
:1015C00056F82A10C16019F101091AF1010AEFE772
:1015D000CDF80080019B3A0029002000FFF728FF8A
:1015E000DFF838030078002803D000F01BF800284B
:1015F000FBD1BDE8F38738B504000D0000230022BD
:1016000029002000FFF7BDFF31BDDFF8100380681F
:10161000DFF808134968884201D1012000E000206A
:10162000C0B270472DE9F84F8AB0FFF7EEFF0028EF
:1016300001D000206FE10020DFF8E012C1F81804AB
:10164000BFF34F8FDFF8D40280680090DFF8EC0220
:101650000668DFF8C8020099314000EB81000C30C9
:101660000890002400270020079069460898FFF79B
:101670004BFE00281CD0DFF8A402D0F81804002884
:1016800016D10098DFF894124968884207D3DFF832
:101690008C024068DFF88412886000203BE1DFF8AC
:1016A0007C020099314000EB81000C300890DCE7AF
:1016B0005FF00008B8F1020F0FD2DFF86002009966
:1016C000314000EB8100C06803A941F82800009870
:1016D000401C009018F10108ECE7039810F003009B
:1016E000022840F08080DDF80C905FEA9959039859
:1016F000800D502804DADDF80CA05FEA9A5A01E068
:101700005FF0500A03986AF39F5003901AF10800A3
:1017100009900398C0F3C20007900999804800F02F
:1017200068F90400002C00F0A380200000F0C7F945
:101730003B00082203A9200000F04AFA0837701C79
:1017400000993140401A800002900298504536D2EC
:101750000298002807D071480099314000EB8100C1
:101760000C30069001E0774806900298002802D0DD
:10177000DDF808B000E0D3460298002801D0714D92
:1017800000E000250298002803D00298BAEB000080
:1017900000E000208DF804003B005A46D2B20699C2
:1017A000200000F015FA57FA8BF7002D14D03B00FB
:1017B0009DF804202900200000F00AFA0CE05748A8
:1017C0000099314000EB810010F10C053B005246BE
:1017D0002900200000F0FCF9009819F1030910EB32
:1017E0009900009044E0039810F0030001283FD1D5
:1017F0000398C0F38310062803DA0398C0F383101C
:1018000000E00620039960F3891103910398C0F367
:101810008315AD1C0398C0F3C2000790A90040488F
:1018200000F0E7F80400002C22D0200000F047F977
:101830003B00082203A9200000F0CAF90837002065
:1018400080460398C0F38310804511D20098411C54
:1018500000913B0004223149304001EB800010F13F
:101860000C01200000F0B4F93F1D18F10108E8E771
:10187000002C33D02948D0F810542848D0F8180448
:10188000002803D0200000F022F93CE0002D13D006
:101890005FF000092800FFF7E1FC012801D10120D9
:1018A00081464846C0B2002803D021002800FFF737
:1018B000C5FCE8680568E9E7200000F008F90020A9
:1018C000FFF7F4F81548D0F81804002802D1009862
:1018D000124988600020FFF7EEF814E00F48D0F8B6
:1018E0001054002D05D02800FFF7B1FCE86805680A
:1018F000F7E7154915480C4A801AC008000450F053
:101900000200FFF778FEFFF780FE002801D10120DA
:1019100000E00020C0B20BB0BDE8F08FB4000020A2
:10192000EC46000054450000FC44000000000000AC
:10193000FC440000CC040020C80400202C0000203F
:10194000D0040020C0000020D8460000144500004C
:1019500010B4020052E8000F0B4642E8003494F045
:10196000000FF7D110BC704710B4020052E8003FDE
:1019700043EA010042E8000494F0000FF6D110BCE5
:101980007047000010B4020052E8000F00EA0103A3
:1019900042E8003494F0000FF6D110BC704700000C
:1019A00010B4020052E8003F03EB010042E80004DB
:1019B00094F0000FF6D110BC7047000010B4020084
:1019C00052E8003FA3EB010042E8000494F0000F4E
:1019D000F6D110BC704710B5040001212000FFF7BC
:1019E000C3FF10BD10B5040000212000FFF7CAFF9F
:1019F00010BD2DE9F84F06000F00B6F81080B8F1C1
:101A0000040818EB0700C01CB0FBF8F9300000F028
:101A10000BF90500002D01D1002027E000202871DE
:101A200001206871A5F806800095CA465FFA8AFA17
:101A3000BAF1010A009806605FF0000BD34514D29A
:101A4000300000F0F1F80400002C09D06879401C47
:101A5000687100980460266000941BF1010BEDE7AB
:101A6000280000F005F8002000E02800BDE8F28F13
:101A70002DE9F84F05002E0077792900B8465FFA66
:101A800088F8B8F101080020404502D20968401CDE
:101A9000FAE7D1F80090AA465FF0000B3800C0B218
:101AA00083450AD2DAF8000004005146484600F0A7
:101AB000E3F8A2461BF1010BF0E7BDE8F18F38B562
:101AC000040025000121281DFFF76AFF31BD7CB508
:101AD000040025000121281DFFF770FF00906E46CD
:101AE0003078002802D12000FFF7C2FF73BD2DE936
:101AF000FF4F87B007980190DDF81C800198C688D9
:101B0000019840794643361F0198C08800900A9892
:101B1000001D0099B0FBF1F50A99091D0098B1FB71
:101B2000F0F7009800FB1717099801680A98411808
:101B30008E4202D20A9C341B01E00998046809987D
:101B40000460002D03D0D8F800806D1EF9E75FF027
:101B50000009DDF800A0BAEB070A544501D2A246FD
:101B6000FFE7002C31D008984844039008EB0700A9
:101B7000001D02909DF8500000280BD0CDF814A055
:101B800002980490DDF80CB0059A0499584600F0CC
:101B900089F80AE0CDF814A003980490DDF808B0A5
:101BA000059A0499584600F07DF800200700D8F8FF
:101BB0000080B4EB0A041AEB09090098844201D2B0
:101BC000A246CEE7DDF800A0CBE70BB0BDE8F08F72
:101BD000FEB504000D0016001F00019600200090C5
:101BE0003B0001AA29002000FFF781FFF7BDFEB5E9
:101BF00004000D0016001F000196012000903B001C
:101C000001AA29002000FFF772FFF7BDC268C9B220
:101C1000008A414302EB01007047C268891A008ABA
:101C2000B1FBF0F0C0B2704738B5040000250020C9
:101C3000FEF73CFF606821680968884217D2206877
:101C40000068401E21680860206800680178200054
:101C5000FFF7DCFF0500A16820680068081A21680A
:101C600009790200D2B2914201D2216808710020A4
:101C7000FEF721FF280032BDF8B504000D002E004C
:101C80000020FEF713FF20680768781C21680860B1
:101C900031002000FFF7C1FF38700020FEF70BFF76
:101CA000F1BD430062B38B0708D0521E11F8013B0F
:101CB00000F8013B00F024808B07F6D1830740F049
:101CC000208000BF103A07D330B4B1E83810103A82
:101CD000A0E83810F9D230BC530724BFB1E808108F
:101CE000A0E8081044BF51F8043B40F8043BD20779
:101CF00024BF31F8022B20F8022B44BF0B7803706D
:101D00007047121F17D35B0009D151F8043B20F82C
:101D1000023B1B0C121F20F8023BF6D20BE051F8DD
:101D2000043B00F8013B1B0A20F8023B1B0C121F6E
:101D300000F8013BF3D238BF121D521E24BF11F828
:101D4000013B00F8013BF8D87047FEE7010049B2BB
:101D500000290AD4012210F01F018A40DFF84C1537
:101D600003005BB25B0941F82320704710B4020006
:101D700052B2002A06D44A01DFF83435040064B2B6
:101D80001A5509E04A01DFF82C35040064B214F05A
:101D90000F04234403F8042C10BC7047000B40B21E
:101DA000704738B504000D002900C9B2200040B2C8
:101DB000FFF7DCFF31BD10B50400200040B2FFF793
:101DC000C5FF10BD01220B00DBB2C250704750FAB4
:101DD00081F0704781B000220B001BB2C2500A0094
:101DE00012B282580092009A01B0704709B240586E
:101DF000002801D0012000E00020C0B27047C0F8E8
:101E000000127047C0F8001370470121C0F8001598
:101E1000704710B400221300DBB2042B0BDA13005E
:101E2000DBB251F823301400E4B200EB8404C4F8B0
:101E30006035521CEFE710BC704710B40C00E4B2E0
:101E4000C0F80C451400E4B2C0F804451C00A4B26C
:101E5000C0F8084510BC704770B504000D001600AE
:101E600032682900C9B2200000F013F8B2882900B6
:101E7000C9B2200000F014F8B2682900C9B22000ED
:101E800000F019F8F2682900C9B2200000F01AF831
:101E900070BD0B00DBB25B010344C3F82025704723
:101EA00010B413009BB20C00E4B264010444C4F803
:101EB000243510BC70470B00DBB25B010344C3F850
:101EC000282570470B00DBB25B010344C3F82C25C7
:101ED000704710B40B00DBB21400E4B253EA0423E1
:101EE000C0F8103510BC70470A0092B2C0F8142533
:101EF000704701000868202802D25FF0A04005E08A
:101F0000087810F01F000860DFF8AC0370472DE977
:101F1000F14181B00E0017009846089C099D01A868
:101F2000FFF7E7FF3100C9B23A00D2B251EA4201ED
:101F30004246D2B251EA82012200D2B251EA0221D3
:101F40002A00D2B251EA0241019A00EB8202C2F8A1
:101F50000017BDE8F3811CB50400002001900020AB
:101F600000900023012201212000FFF7D0FF13BDC4
:101F700011B581B001A8FFF7BCFF04000121019851
:101F80008140200000F00EF813BD11B581B001A80A
:101F9000FFF7AFFF0400012101988140200000F00D
:101FA00004F813BDC0F808157047C0F80C15704749
:101FB0002DE9FF4104000D0000263000C0B20428C6
:101FC00038DA3000C0B22F5C3800C0B2FF2828D009
:101FD000B8465FFA88F85FEAD8183800C0B230F027
:101FE000800069463200D2B241F822004046C0B2B9
:101FF000002807D068463100C9B250F82100FFF729
:10200000B7FF06E068463100C9B250F82100FFF77B
:10201000BCFF68463100C9B250F82100FFF79BFFB2
:1020200006E05FF0FF3069463200D2B241F822008C
:10203000761CC2E769462068FFF7EBFEBDE8FF812A
:10204000F8B504000D001600DFF87002217900EBEE
:10205000C1073879002801D0082041E03E602900FE
:102060002000FFF7A5FF2068FFF7CFFE2B89AA7994
:1020700069792068FFF7E1FEEA7AA97A2068FFF71C
:1020800028FF00212068FFF7BAFE00212068FFF733
:10209000B9FE4FF48E712068FFF79CFE4FF48871F3
:1020A0002068FFF797FE4FF48A712068FFF792FED1
:1020B0004FF482712068FFF78DFE386800280CD03D
:1020C0002068FFF76BFE297940B2FFF76AFE2068AF
:1020D000FFF764FE40B2FFF76EFE0120387100206A
:1020E000F2BD2DE9F04104000D0016001F00022092
:1020F00028716E712868002811D05FF0820870077F
:1021000001D558F01008300701D558F02008F00626
:1021100001D538F0800841462068FFF773FE4FF480
:1021200082712068FFF756FE300605D53900C9B226
:102130002068FFF74CFE05E03900C9B22068FFF7C0
:1021400041FE0020BDE8F0812DE9F04704000D00BC
:1021500016001F005948217900EBC1082A00002110
:102160002068FFF779FE2A0001212068FFF774FE3E
:1021700016F00109300080B2022190FBF1F050FA14
:1021800089F189B22068FFF7AFFEF80702D55FF04A
:10219000100A0DE0B80709D54846C0B2002802D0A1
:1021A0005FF0080A04E05FF0040A01E05FF0000A53
:1021B00051462068FFF723FE4846C0B2002801D0F0
:1021C0000C2300E00823DBB23A00D2B241462000E3
:1021D000FFF787FFBDE8F08738B504000D004FF426
:1021E00088712000FFF702FE00280DD04FF488719F
:1021F0002000FFF7EFFD6879400705D52868002823
:1022000002D00120296888474FF48A712000FFF727
:10221000EDFD00280DD04FF48A712000FFF7DAFDA4
:102220006879000705D52868002802D002202968AF
:1022300088474FF48E712000FFF7D8FD00280DD09D
:102240004FF48E712000FFF7C5FD6879C00605D4F4
:102250002868002802D00020296888474FF482713E
:102260002000FFF7C3FD00280CD04FF4827120003E
:10227000FFF7B0FD012028712868002802D0032054
:102280002968884731BD80B50C490D48FFF7A4FF88
:1022900001BD80B50B490C48FFF79EFF01BD80B51D
:1022A0000A490B48FFF798FF01BD000000E100E07C
:1022B00000E400E018ED00E0000300506807002093
:1022C00000C0014070070020001002407807002085
:1022D0000020024038B504000D002800C0B20A28D2
:1022E00003D10D212000FFF7F5FFA068411CA1607C
:1022F00021680D54A0686168884202D3200000F074
:102300002DFA31BD2DE9F84307000D001400984661
:102310005FF000095FEAC87018D528780600300021
:10232000C0B2002808D06D1C19F101093100C9B2F2
:102330003800FFF7CFFFF0E7A14526D2002C24D0CC
:10234000641E20213800FFF7C5FFF5E7002D03D0FC
:10235000280000F025FA8146A14507D2002C05D0BF
:10236000641E20213800FFF7B5FFF5E72878060046
:102370003000C0B2002808D06D1C19F101093100ED
:10238000C9B23800FFF7A6FFF0E7BDE8F1832DE9F9
:10239000FE4F0700884691461E000C9CC3465FF026
:1023A000010ACB4504D3BBFBF9FB1AF1010AF8E79C
:1023B000B24500D2B2460D98C00718D4002C16D0F2
:1023C0000D98800705D5002E03D130208DF8000030
:1023D00002E020208DF80000002C08D0A24506D293
:1023E000641E9DF800103800FFF774FFF4E7012524
:1023F000022E01D3761E05E0B8FBF5F0019001989E
:10240000484502D309FB05F5F2E7B8FBF5F001906A
:10241000019805FB10880D480199415C3800FFF7D1
:1024200059FFB5FBF9F5002DEFD10D98C0070BD57D
:10243000002C09D0002C07D0A24505D2641E202113
:102440003800FFF747FFF5E7BDE8F78F10470000BA
:102450002DE9FE4F06000F0090461D000C9CDDF894
:102460003490002F02D5D7F1000A00E0BA465FF0A1
:10247000010BC24504DB9AFBF8FA1BF1010BF8E7EC
:10248000AB4500D2AB46002C05D0002F02D45FEA4A
:10249000497000D5641E5FEA897001D5002D0ED009
:1024A0005FEAC9700BD4002C09D0002C07D0A345DB
:1024B00005D2641E20213000FFF70CFFF5E7002F46
:1024C00005D57F422D213000FFF704FF06E05FEACB
:1024D000497003D52B213000FFF7FCFE19F00300F3
:1024E00002280DD1002D0BD1002C09D0002C07D0D3
:1024F000A34505D2641E30213000FFF7EBFEF5E75F
:10250000CDF8049000942B00424639003000FFF7CC
:102510003EFFBDE8F78F2DE9FE4F06000D001700C6
:10252000002D00F01981287883466D1C5846C0B2F2
:10253000002800F00B815846C0B2252840F0FD80ED
:102540000020804601200400287883465846C0B207
:102550002B280CD02D2802D0302804D00BE058F0C6
:1025600001086D1C09E058F002086D1C05E058F0E8
:1025700004086D1C01E000200400002CE4D10020C0
:1025800081465846C0B22A280AD13868386038686F
:1025900000683968091D396010EB09096D1C12E0EB
:1025A000287883465846C0B2302803DB5846C0B26C
:1025B0003A2800DB07E06D1C0A205946C9B23039C1
:1025C00000FB0919DDE70020824628780100C9B226
:1025D0002E2913D16D1C297808000100C9B23029B9
:1025E00003DB0100C9B23A2900DB07E06D1C0A21B8
:1025F0000200D2B2303A01FB0A2AECE795F800B0AB
:102600005846C0B26C2803D05846C0B2682803D1DF
:102610006D1C28788346F3E75846C0B2252800F0A1
:102620008580582845D063280CD064281BD06928A1
:1026300019D070285FD073284ED0752826D07828FE
:1026400037D078E038683860386800683968091D24
:102650003960040020008DF800009DF80010300063
:10266000FFF738FE67E03868386038680068396816
:10267000091D39600400CDF80480CDF80090534660
:102680000A2221003000FFF7E3FE54E0386838608A
:10269000386800683968091D39600400CDF8048085
:1026A000CDF8009053460A2221003000FFF76FFE5C
:1026B00041E038683860386800683968091D396059
:1026C0000400CDF80480CDF800905346102221007C
:1026D0003000FFF75CFE2EE038683860386800682C
:1026E0003968091D3960009043464A460099300018
:1026F000FFF708FE1FE038683860386800683968FE
:10270000091D3960040030213000FFF7E3FD782116
:102710003000FFF7DFFD0020019008200090082323
:10272000102221003000FFF732FE04E025213000A6
:10273000FFF7D0FDFFE76D1C04E05946C9B2300039
:10274000FFF7C8FD287800287FF4EDAE307B002825
:1027500002D0300000F002F8BDE8F78F10B5040099
:10276000A068002806D0A26821682069636998479C
:102770000020A06010BD0CB438B505000C00002C82
:1027800009D006480068009004A800906A4621001D
:102790002800FFF7C0FE31BC5DF80CFB604800006C
:1027A00000F10103810704D010F8011B820781B1F9
:1027B000FAD10268A2F10131914311F0803104BFD6
:1027C00050F8042FF6E709BAB1FA81F100EBD10015
:1027D000401CC01A7047FEE7BFF34F8FDFF80C03B1
:1027E000016811F4E061DFF808030143DFF8FC023F
:1027F0000160BFF34F8F00BFFDE7DFF8F80202680A
:10280000DFF8F4020168082A11D1002905D0022955
:1028100007D004D3032906D007E0012008E00120F7
:1028200006E0012004E0012002E0012000E0002099
:102830007047DFF8C0020268DFF8BC020168082AAE
:1028400011D1002905D0022907D004D3032906D0CD
:1028500007E0012008E0012006E0012004E001205B
:1028600002E0012000E000207047A2480268A24870
:102870000168082A11D1002905D0022907D004D304
:10288000032906D007E0012008E0002006E0002030
:1028900004E0002002E0002000E00020704795489E
:1028A000026895480168082A11D1002905D002293B
:1028B00007D004D3032906D007E0012008E0002058
:1028C00006E0002004E0002002E0002000E00020FC
:1028D00070478848026888480168082A11D1002991
:1028E00005D0022907D004D3032906D007E0012030
:1028F00008E0002006E0002004E0002002E00020C4
:1029000000E0002070477B4802687B480168082A85
:1029100011D1002905D0022907D004D3032906D0FC
:1029200007E0012008E0002006E0002004E000208D
:1029300002E0002000E0002070476E4802686E4808
:102940000168082A11D1002905D0022907D004D333
:10295000032906D007E0012008E0012006E001205D
:1029600004E0012002E0012000E0002070476348FD
:1029700063490860704780B5FFF73FFF002808D023
:1029800000206049086000205F49086000205F491E
:102990000860FFF74EFF002843D05D4800685D499E
:1029A00008605D4800685D4908605D4800685D49F1
:1029B00008605D4800685D4908605D4800685D49E1
:1029C00008605D4800685D4908605D4800685D49D1
:1029D00008605D4800685D4908605D4800685D49C1
:1029E00008605D4800685D4908605D4800685D49B1
:1029F00008605D4800685D4908605D4800685D49A1
:102A000008605D4800685D4908605D4800685D4990
:102A100008605D4800685D4908605D4800685D4980
:102A20000860FFF722FF002802D05B485B4908607E
:102A3000FFF735FF002802D0FB2059490860FFF757
:102A400048FF00280AD0574800680009000156498D
:102A5000097811F00F01084352490860FFF753FF4E
:102A6000002803D04FF4007050490860FFF765FF5D
:102A7000002807D04E480068C00703D57FF001004A
:102A80004B4908604B48006850F4700049490860A1
:102A9000BFF34F8FBFF36F8F47480068002803D400
:102AA0004648006800281DD5012045490860454872
:102AB00000680028FBD012203F49086041480068A8
:102AC0000028FBD012203D4908603E4800680028DD
:102AD000FBD000203A4908603A4800680028FBD043
:102AE000FFF77AFEFFF743FF01BD00000CED00E0A9
:102AF0000400FA0530010010340100100090D003EA
:102B0000680000200C010040100100403805004022
:102B10000404001020C500400804001024C5004033
:102B20000C04001028C50040100400102CC5004003
:102B30001404001030C500401804001034C50040D3
:102B40001C04001040C500402004001044C5004093
:102B50002404001048C50040280400104CC5004063
:102B60002C04001050C500403004001054C5004033
:102B70003404001060C500403804001064C50040F3
:102B80003C04001068C50040400400106CC50040C3
:102B90004404001070C50040488103008C5600407A
:102BA00018F50040E40E0040580200104096024024
:102BB0000004004088ED00E0001200100412001034
:102BC00004E5014000E40140010049B200290AD4B3
:102BD000012210F01F018A40DFF8AC1303005BB242
:102BE0005B0941F82320704710B4020052B2002A5A
:102BF00006D44A01DFF89433040064B21A5509E0A0
:102C00004A01DFF88C33040064B214F00F0423444B
:102C100003F8042C10BC704738B504000D002900DF
:102C2000C9B2200040B2FFF7DFFF31BD10B504008C
:102C3000200040B2FFF7C8FF10BD70B50400002CA3
:102C400008D0DFF8505355F00105402606FB04F686
:102C50003000A84770BD00EB8103C3F840257047E2
:102C600000EB8100D0F840057047C0F804137047AE
:102C7000C0F80813704709B24058704781B000226D
:102C80000B001BB2C2500A0012B282580092009A86
:102C900001B07047D0F804057047C0F808157047B8
:102CA000012250FA81F31A607047C0F8441370474C
:102CB000C0F848137047F8B504000D001600DFF89F
:102CC000D802617940F82160DFF8D002617900EB29
:102CD000C100007900280CD00827B149B148B24A98
:102CE000801AC008000450F00200FEF784FC38008F
:102CF00022E029882068FFF7D0FFA97894F9040022
:102D0000FFF78AFF94F90400FFF790FFA348617969
:102D100000EBC10001210171A048617940F8314008
:102D20000027A2499F48A04A801AC008000450F01A
:102D30000300FEF760FC3800F2BD10B5040000216E
:102D40002068FFF7ADFF10BD10B504000421206816
:102D5000FFF7A6FF10BD2DE9F84304000D00160093
:102D60001F005FF4803818FA05F85FEA850919F545
:102D7000A07926F07F4641462068FFF779FF41465B
:102D80002068FFF795FF494609B22068FFF776FFF4
:102D9000320029002068FFF75EFF41462068FFF7F8
:102DA00084FF3800C0B2002803D041462068FFF7F6
:102DB0005CFFBDE8F18370B504000D00160029002A
:102DC0002068FFF772FF3000C0B2002803D029004E
:102DD0002068FFF74AFF70BD38B504000D002900D8
:102DE0002068FFF765FF29002068FFF741FF31BD2C
:102DF00038B504000D00290009B22068FFF73BFF39
:102E0000002806D0290009B22068FFF737FF01200B
:102E100000E0002032BD401A20F07F4070472DE9CD
:102E2000FE4F05000E005FF48037B7405FEA86086A
:102E300018F5A07822F07F42009239002800FFF7B1
:102E4000CBFF2868FFF726FF834631002868FFF78D
:102E500007FF81465A4631002868FFF7FCFE4146CD
:102E600009B22868FFF70AFF59464846FFF7D3FF23
:102E7000012807D11020FFF7E0FE414609B228687B
:102E8000FFF7FCFE2868FFF705FF824651460098D1
:102E9000FFF7C1FF040039002868FFF706FF012C87
:102EA0000FD1009A521C31002868FFF7D4FE102081
:102EB000FFF7C3FE2868FFF7EDFE824527D00D20FF
:102EC0002BE0009A31002868FFF7C5FE2868FFF75D
:102ED000E1FE824651460098401EFFF79CFF040029
:102EE0007FF07F410298091AA14201D20D2014E01F
:102EF000002C0CD1009A521C31002868FFF7ABFE61
:102F00002868FFF7C7FE824501D00D2005E00122A9
:102F100039002800FFF74FFF0020BDE8FE8F38B5CD
:102F200004000D002A00D2B202212000FFF743FF67
:102F300031BD10B504004FF482712000FFF758FF37
:102F400010BD38B504000D005FF48031A9402000A9
:102F5000FFF742FF31BD70B504000D00AE0016F55D
:102F6000A076310009B22000FFF742FF70BD10B516
:102F700004002068FFF78EFE10BD80B5074800688A
:102F800005490968884701BD00E100E000E400E070
:102F900018ED00E0A0470000FC070020B807002063
:102FA000B445000004450000FC440000B0460000A9
:102FB00080B5DFF89003FFF7DAFFDFF88C13D1E973
:102FC0000023002110185941DFF88023D2E90023A3
:102FD000994206D801D3904203D2B0F17F4071F1FB
:102FE000FF3104BDF0B402000B00D2E90245D3E981
:102FF0000267AF4204D301D8A64201D3012000E00A
:103000000020C0B2F0BC704738B504000025DFF8DE
:1030100040030078012832D1002C30D0207F0028D6
:103020002DD0FFF7C5FFD4E90223994220D301D860
:1030300090421DD32069002801D100202077A0698B
:10304000616988472069002819D0207F002816D0A0
:10305000D4E902232069002110185941C4E9020172
:103060002100DFF8F00200F085F90120050006E0FC
:103070002100DFF8E00200F07DF9012005002800C2
:10308000C0B232BD2DE9F843050088460D2400206A
:1030900088F80000FFF78CFFD5E90223161A73EBBE
:1030A0000107012000218F421DDB01DC86421AD37B
:1030B000B6F5350F07D300F040F98146DFF89802E6
:1030C00010EB090902E0D5E9020181465FF496039D
:1030D0004A460021DFF86C02FFF7A1FE0400002C35
:1030E00006D101200DE00021DFF85802FFF729FF8B
:1030F0000D2C05D12800FFF787FF88F80000FFE7B7
:103100000020BDE8F28380B5DFF8480200F045F901
:10311000002800D1002002BD80B5DFF838024068E9
:103120000068002800D1002002BD10B5FFF7EBFFBA
:103130000400002C01D000202077002CF6D110BD17
:103140008148D0E90001B0F17F4071F1FF317E4A42
:10315000C2E90001704710B50400804800680028EB
:1031600007D07E480068FFF74FFF00207B490860CA
:10317000FFE710BD10B50400FFF71AFF734AC2E95C
:10318000000110BDF8B50500FFF7C6FF04000026DA
:10319000002C3DD071480068002802D101200600B3
:1031A00016E0D4E902016D4A1268D2E9022399427D
:1031B0000ED801D390420BD2012006006748006868
:1031C000007F002804D065480168624800F0D2F80A
:1031D0003000C0B200281AD0FFF795FF07006946FB
:1031E0003800FFF74FFF00280DD05C48006800282A
:1031F00002D12800FFF7A1FD584807609DF80000A4
:103200000028C1D10BE0002054490860BCE706E06B
:1032100052480068002802D12800FFF795FDF1BD53
:1032200038B5050069464E48006800F021F90400F1
:10323000002C36D02078002803D002281FD00CD3D1
:1032400023E06068007F002806D1012061680877CC
:103250006168404800F08EF817E060683F490968EF
:10326000884203D100203D49086007E06168394881
:1032700000F0A0F801000800C0B2002805E0FFF748
:1032800054FF012032490870FFE76946344800685E
:1032900000F0FDF869463248006800F0E9F80400E3
:1032A000C6E731BD10B504002000FFF742FE00283C
:1032B00001D0FFF745FF00212000FFF74CFE00285A
:1032C00002D02000FFF747FF01212000FFF743FE57
:1032D000002802D02000FFF74DFF2000FFF7A0FFDD
:1032E0002000FFF74FFF10BD38B51E480068009062
:1032F000082358221C491A48006800F09DF8050070
:10330000002D01D0280017E0184A69460D48FFF744
:10331000D2FC0400002C01D020000DE0012109485E
:10332000FFF7FDFD0123124A01210648FFF713FDB7
:10333000012007490870200032BD80B50148FFF721
:1033400016FE02BD00000020A8070020B0070020E4
:103350000208002058470000FFFFB400F0070020DB
:10336000584800005C48000080060020A53200009C
:10337000FFFF7F0070B504000D006668306800280C
:1033800007D029003068A2689047002801D036682D
:10339000F4E730682860356070BD0200506800684E
:1033A00051680968002904D05168096809685368A0
:1033B0001960704710B4030000205C682268002A7E
:1033C00009D022688A4204D10A68226001221000D2
:1033D00001E02468F2E7C0B210BC70473CB40200C0
:1033E00052E8025F1FFAA5F3D488A34202BFBFF3DD
:1033F0002F8F00200DE0D48923449489A34228BF55
:103400001B1BC5EA034342E80234002CE8D14FF00D
:10341000010001958DF80000019808609DF80000FA
:1034200036BC704750E8022FC2EA224240E802212F
:103430000029F7D17047000070B40400002901D1C1
:103440000E2013E0100080B21D00ADB290FBF5F627
:1034500005FB1600002801D0092007E021600020AC
:1034600060600020A060A281E381002070BC7047F2
:1034700038B504000D0029002000FFF7AFFF002839
:1034800003D020686988084400E0002032BD38B5C8
:1034900004000D0028886988884204D12000FFF7C5
:1034A000C1FF012000E0002032BDFEE710B504009E
:1034B000200000B200F018F80068012801D10120B6
:1034C00000E00020C0B210BD1CB50400200000B216
:1034D00000F00AF800210160200000B200F004F8BA
:1034E00000680090009813BD00B200F1804010F514
:1034F000C0407047DFF82012096808407047DFF8C5
:103500001C1251F82000C0F305207047DFF80C12A0
:1035100051F82000000C10F003007047010008680B
:10352000202802D25FF0A04005E0087810F01F00CC
:103530000860DFF8EC01704711B581B00C0001A8FC
:10354000FFF7ECFF019900EB8101D1F8001731F48E
:103550004031019A00EB8202C2F80017019900EB9A
:103560008101D1F800172200D2B251EA0241019A3A
:1035700000EB8202C2F8001713BD01B56846FFF7E1
:10358000CDFF009900EB8100D0F80007000C10F08F
:10359000030002BD7CB46B46DFF88841D4E90056D5
:1035A000C3E9005603000C18A3420ED26C4654F82F
:1035B0002340D4F82045146014686D4655F8235014
:1035C000C5F82045121D5B1CEDE773BC704701B5C3
:1035D0006846FFF7A3FF012200998A40C0F8202522
:1035E00001BD10B40A000300DB0810F0070001243D
:1035F00014FA00F0D25C104010BC7047DFF82811BC
:10360000084490F930007047DFF81C1151F8200091
:1036100070470100DFF81001084490F86000C0B264
:1036200030F0C00070470100DFF8FC00084490F85B
:103630006000C0B28009704710B50400220002216A
:103640000020FFF7A7FF0021022907D254F821002C
:10365000002801D0012002E0491CF5E7002010BD40
:103660002DE9F04704000025042D4DD22E482844B2
:1036700090F9600010F1010F44D02800FFF7C9FF56
:10368000060021003000FFF7ACFF00283AD02800E8
:10369000FFF7C9FF07003000FFF76FFF8046404685
:1036A000C0B2022802D15FF0030901E05FF0020915
:1036B0004946C9B23000FFF73FFF3000FFF787FFF0
:1036C0003000FFF79BFF40B2FFF79EFF8246504657
:1036D000002817D03800C0B203280FD04046C0B22F
:1036E000022803D13800C0B2012807D04046C0B23A
:1036F000032807D13800C0B2022803D13900C9B26B
:103700003000D0476D1CAFE72000FFF795FF002881
:10371000A9D1BDE8F08700000463004010650040B7
:103720000003005040480000140600202DE9FC472B
:103730000024082100226D46280000F053F84FF4C1
:10374000807601250027082F13D2300000B2FFF742
:10375000ADFE002809D02800FFF7CCFE002804D0D9
:10376000300000B2FFF7B0FE2C436D00361D7F1C09
:10377000E9E74FF4BE70FFF799FE00280AD04FF436
:10378000BE70FFF7A1FE54F000446A4602210020FB
:10379000FFF700FF20061DD00120050000200700D4
:1037A000082F17D2254212D03800FFF7A8FE804616
:1037B0003800FFF7ABFE81463800FFF725FF824651
:1037C0005046002803D04946C9B24046D0476D0054
:1037D0007F1CE5E7002C02D56846FFF741FFBDE8F6
:1037E000F387FEE762F30F2262F31F42401810F0E6
:1037F000030308D0C91A1FD3DB0748BF00F8012D07
:1038000028BF20F8022D130030B414461546103995
:1038100028BF20E93C00FAD8490728BF20E90C005E
:1038200048BF40F8042D890028BF20F8022D48BF6A
:1038300000F8012D30BC7047C91818BF00F8012DE1
:10384000CB0728BF00F8012D7047FEE770B50400D4
:10385000002C07D0AE4D55F00105402606FB04F6BE
:103860003000A84770BD01000868202802D25FF030
:10387000A04004E0087810F01F000860A5487047D9
:103880002DE9F14181B00E0017009846089C099D72
:1038900001A8FFF7E8FF3100C9B23A00D2B251EAFD
:1038A00042014246D2B251EA82012200D2B251EA2A
:1038B00002212A00D2B251EA0241019A00EB8202AF
:1038C000C2F80017BDE8F3811CB504000020019088
:1038D000002000900023012201212000FFF7D0FFEB
:1038E00013BD11B581B001A8FFF7BDFF0400012190
:1038F00001988140200000F001F813BDC0F80C15BC
:10390000704710B50400002C06D04FF47A70FFF712
:103910009DFF641E002CF8D110BD0100C9B2002922
:1039200002D101217C4A117070471FB51020FFF7AA
:10393000CBFF1020FFF7D5FF00200100C9B22829D6
:1039400008DA4FF40041754A0300DBB222F8131085
:10395000401CF2E76846724991E81C0080E81C00B0
:10396000704A69467048FEF76BFB0400002C02D0D9
:10397000200000F0DFF80120674908701FBD80B506
:103980000020654908700123012268496648FEF756
:10399000DBFB614800780128FBD101BD002001005C
:1039A00089B218290AD248F206015C4A03009BB288
:1039B00002EB4302A2F85010401CF0E77047F0B44D
:1039C000049C00263500EDB2082D6DDA1500EDB22D
:1039D0003541ED070FD5514F8C461FFA8CFC182549
:1039E00005FB0CFC5CFA86F507EB450548F20F0772
:1039F000A5F850700EE0494F8C461FFA8CFC182534
:103A000005FB0CFC5CFA86F507EB450548F206075A
:103A1000A5F850701D00EDB23541ED070FD53F4FB1
:103A20008C461FFA8CFC182505FB0CFC5CFA86F50D
:103A300007EB450548F20F07A5F860700EE0374F19
:103A40008C461FFA8CFC182505FB0CFC5CFA86F5ED
:103A500007EB450548F20607A5F860702500EDB2B2
:103A60003541ED070FD52D4F8C461FFA8CFC1825DC
:103A700005FB0CFC5CFA86F507EB450548F20F07E1
:103A8000A5F870700EE0254F8C461FFA8CFC1825A7
:103A900005FB0CFC5CFA86F507EB450548F20607CA
:103AA000A5F87070761C8DE7F0BC704710B500F07B
:103AB0005AF80400002C02D0200000F03BF800204F
:103AC00000F08FF8FFF710FC0400002C02D020005B
:103AD00000F030F810BD80B5FFF7E8FFFFF725FFD5
:103AE00013480078401C12490870FFF757FF002068
:103AF00000900F480378002200210020FFF75FFFAD
:103B0000FFF73DFF6420FFF7FCFEE9E7000000003F
:103B1000B047000000030050030800209405002077
:103B2000644700001B390000080000200047000027
:103B3000040800201FB5040068460021002200236D
:103B400080E80E0002946A46002144F20100C0465B
:103B5000C0461FBD51480068002801D0012000E088
:103B60000020C0B2704738B500244D4800780028C6
:103B700001D0852515E0002049498860002048498A
:103B8000486000204649086100204549C8600FF29E
:103B9000DD0000F01EF9050000F02DF9012040497C
:103BA0000870FFF7D7FF002802D001203C49887039
:103BB000280032BD0268002A03D08A4209D0126868
:103BC000F9E70368002B01D0036800E000230B60D5
:103BD0000160704701000868002801D002680A608F
:103BE000704710B504002E488078002810D0002CB3
:103BF00002D00120616888470020FCF757FF284861
:103C0000C068401C2649C8600020FCF754FF16E03D
:103C10000020FCF74BFF002C03D021002148FFF7C8
:103C2000C9FF1F48C068002801D100F0EBF81C480C
:103C3000C068401C1A49C8600020FCF73CFF10BD5A
:103C400070B505002800C0B2002801D1164E00E072
:103C5000144E3000FFF7BEFF0400002C04D02800F3
:103C6000C0B261688847F4E770BD000010B5040079
:103C70002000C0B2002805D1012009494870002069
:103C8000FFF7DEFF2000C0B2012805D10120044962
:103C900088700120FFF7D4FF10BD00000004014030
:103CA000800700209007002088070020010049B20B
:103CB000002909D4012210F01F018A406D49030038
:103CC0005BB25B0941F82320704710B4020052B286
:103CD000002A05D44A01684B040064B21A5508E072
:103CE0004A01664B040064B214F00F04234403F845
:103CF000042C10BC7047000B40B2704738B504006C
:103D00000D002900C9B2200040B2FFF7DEFF31BD2F
:103D100010B50400200040B2FFF7C8FF10BD01003D
:103D2000080040B2202290FBF2F0524A52F82000E4
:103D300049B2202291FBF2F302FB1311C84010F0AC
:103D4000010070474E49086070474E49086070474F
:103D500001215FF080420300DBB2D150704781B097
:103D600000215FF0804203001BB2D1505FF0804120
:103D7000020012B289580091009901B070475FF0BB
:103D8000804100B20858002801D0012000E0002046
:103D9000C0B270473C490860704710B506245FF018
:103DA0008040FFF7A8FF40B2FFF7B9FF00280FD10E
:103DB0005FF08040FFF79FFF2100C9B240B2FFF7DC
:103DC0009DFF5FF08040FFF796FF40B2FFF7A0FF36
:103DD00010BD020000202D490979002902D085215B
:103DE000080007E029490A600121284B19710021C8
:103DF000264B5971704780B5FFF7CFFF0120FFF7C1
:103E0000C9FF01BD80B54FF48270FFF7A8FF022003
:103E1000FFF798FF0820FFF79BFF01BD80B54FF427
:103E20008070FFF7ACFF002811D04FF48070FFF7CF
:103E300096FF0120FFF789FF14484079002806D13A
:103E400001201249487100201049096888474FF441
:103E50008270FFF794FF00280AD04FF48270FFF7BA
:103E60007EFF0220FFF771FF01200849096888479B
:103E700001BD000000E100E000E400E018ED00E01A
:103E8000040300400803004018050040E00700203C
:103E9000704738B504000D00E088002807D08C4832
:103EA0000090E3888B4A8C492800FEF764FC207A56
:103EB00005281FD0607A00280BD0217AA088FDF752
:103EC00008FA8649C0B251F820207BA12800FEF7ED
:103ED00052FC21682800FFF7DBFF0021A088FDF7D6
:103EE000E5F903007E48217A50F821207D49280019
:103EF000FEF741FC31BD70B504000D001600207ABC
:103F000005280DD0607A002805D0744802686AA19F
:103F10002800FEF730FC69A12800FEF72CFC07E022
:103F20003000C0B2002803D064A12800FEF723FCB3
:103F30002800FEF713FC70BD2DE9F84384B004009F
:103F40000D0016001F00DDF8308098F80C9000205E
:103F500088F80C0041463800FFF79BFF002E09D07F
:103F6000022E12D00BD3042E1FD015D3062E34D020
:103F700026D341E021004046FEF7FDFB3CE02A68E5
:103F800021004046FEF7F7FB36E06B682A68210007
:103F90004046FEF7F0FB2FE0A86800906B682A68A7
:103FA00021004046FEF7E7FB26E0E8680190A8689C
:103FB00000906B682A6821004046FEF7DCFB1BE09E
:103FC00028690290E8680190A86800906B682A68E8
:103FD00021004046FEF7CFFB0EE068690390286998
:103FE0000290E8680190A86800906B682A68210038
:103FF0004046FEF7C0FBFFE7002241463800FFF7CE
:104000007AFF88F80C9005B0BDE8F0832DE9F04701
:1040100004000D0016001F00092D4AD297F80C80ED
:104020000020387339003000FFF733FF5FF0000ADB
:10403000BAF1080F0FD2AA4506D214F80A202A496D
:104040003800FEF798FB03E01DA13800FEF793FB54
:104050001AF1010AECE71BA13800FEF78CFB5FF0B8
:104060000009B9F1080F1DD2A94514D214F809A00E
:104070005046C0B27F2808DA5046C0B200F036F889
:10408000002802D05246D2B200E02E220EA1380003
:10409000FEF771FB03E00DA13800FEF76CFB19F190
:1040A0000109DEE7012239003000FFF724FF87F81D
:1040B0000C80BDE8F0870000257300000D0A0000A9
:1040C000202020007C00000025630000200000006C
:1040D000E0470000F0470000984600004400002040
:1040E000300000207C4700002848000010B504463E
:1040F000A4F120005F280BD3204600F00BF838B95C
:10410000204600F011F8401E8041C043C00F10BD92
:10411000012010BD10B5044600F02FF801462046DE
:104120000969BDE81040084710B5044600F025F8BD
:1041300001462046C969BDE810400847613807E0DC
:1041400005E0A0F161011A2901D201207047413830
:104150001A288041C00F7047A0F121010F290AD30E
:10416000A0F13A02062A06D9A0F15B01062902D382
:104170007B380428EDE701207047014870470000B4
:104180006C00002010B504004D482178405C0028E8
:1041900003D0201DFCF7C2FE08E049482178405CAE
:1041A000002803D114F10C00FCF743FA10BDF8B558
:1041B00004000D001600002741482178405C0028CB
:1041C00007D03200D2B22900201DFCF7F0FE070014
:1041D0000CE03B482178405C002807D13200D2B285
:1041E000290014F10C00FCF771FA07003800F2BD49
:1041F0000122344B1A70704770B588B005006846CC
:1042000031492022FDF75EFD062000905FF0FF306F
:1042100001905FF0FF3002905FF0FF3003905FF09D
:10422000EB7006902800C0B2002801D0274A00E0B9
:1042300000226946264800F081F806003400002C70
:1042400002D02000FFF776FC2248057008B070BD50
:104250002DE9F84305000E001700B8460020194963
:1042600008704246D2B231001948FFF7A0FF8146DC
:104270004C46002C02D02000FFF75CFC154800786B
:10428000002803D00F4800780028F7D0BDE8F1835C
:1042900038B504000D001048009040230F4A290053
:1042A000200000F095F831BD704710B504000848B3
:1042B000FFF768FF0020FFF79FFF10BD0000000020
:1042C000000800200508002020460000F141000001
:1042D000100000200608002051420000D8060020EF
:1042E0007FB504000D002E0020788DF80000606876
:1042F0000190A0688DF80800E06803902F4850F8FE
:10430000261068462E4A52F8262090477FBD7FB57A
:1043100004000D002E0020788DF8000060680190E8
:10432000A0688DF80800E0680390244850F8261033
:104330006846234A52F8262090477FBD2DE9F04178
:1043400088B004000D00160027781D4840F827604B
:1043500028691A4941F82700012F687F1949C85573
:10436000684629002022FDF7ADFC04975FF00008A5
:1043700014482178405C00280BD03000002801D080
:10438000114A00E000226946201DFCF78AFD8046A4
:1043900010E00C482178405C00280BD13000002848
:1043A00001D00A4A00E00022694614F10C00FCF733
:1043B00000F98046404608B0BDE8F081C8070020FB
:1043C000C007002000080020E14200000F43000069
:1043D0002DE9F04F95B005000E0017009846DDF866
:1043E00078903000FDF76BFB09A8182100F068F801
:1043F0000997CDF82880CDF83890002423000822B2
:1044000001A93000FDF7F3FB5FF0080A0398049060
:10441000BDF80800ADF81400BDF80A00ADF81600AC
:1044200000208DF81900019810F0030001281CD11C
:10443000DDF804B05FEA9B2B0198C0F3C2008DF851
:1044400018000198C0F383145346A2000FA930004E
:10445000FDF7CDFB1AEB840A09A8009004AB2200FB
:104460000FA95846FFF768FD23E0019810F00300FC
:1044700002281ED1019CA40D0198C0F3C2008DF842
:104480001800082C01D2A34601E05FF0080B534648
:104490005A4607A93000FDF7AAFB1BEB0A0AB4EB4A
:1044A0000B0409AB04AA594607A8FFF7AFFD002C7F
:1044B000E7D13000FDF70BFB15B0BDE8F08FFEE74C
:1044C000002200F001B8FEE700B500BF13009646D9
:1044D0009446103928BFA0E80C50FAD85FEA417C16
:1044E00028BF0CC048BF40F8042BC90728BF20F8DC
:1044F000022B48BF00F8012B00BDFEE7404700003B
:10450000000000004C47000000000000B847000019
:10451000000000006448000000000303884700001A
:104520000000000030480000000000003848000093
:104530000000000068480000000000006C48000017
:104540000000000048480000000000005048000043
:104550000000000030B4002512E050F8042BD3070F
:1045600044BF4A44521E091F042942F8045BFAD290
:1045700013468C0744BF15809B1CC90748BF1D709C
:1045800050F8041B0029E8D130BC704710B507492A
:1045900079441831064C7C44163404E00A68081D3E
:1045A000114488470146A142F8D110BD50000000D7
:1045B0006C00000052544320696E7374616E636531
:1045C00020616C726561647920696E697469616CDF
:1045D000697A65642E0000004EF68851CEF2000123
:1045E000086840F470000860BFF34F8FBFF36F8F0F
:1045F0004FF00070E1EE100A7047000059FFFFFF16
:1046000054070000B40000200000000003C4FFFFB6
:10461000AC020000D200000000000020FEE7000015
:10462000FFFFFFFFFFFFFFFFFFFFFFFFFFFFFFFF9A
:1046300000000000000000000000D601060100009C
:104640000120C046002801D0FFF7A0FFAFF3008093
:104650000020AFF30080FFF73EFA00F000F800F012
:1046600001B8FEE70746384600F002F8FBE7FEE730
:104670002021090326311820ABBEF9E70548014681
:1046800003B4684680F30988AFF30080FFF7A4FF06
:10469000FFF7D6FFA5EDF5FE25734C6F6773206419
:1046A000726F70706564202825642925730D0A00D7
:1046B0005254433A20696E697469616C697A656421
:1046C0002E000000756172745F6C6F675F626163DA
:1046D0006B656E64000000004261636B656E64731D
:1046E00020666C757368656400000000D8070020C0
:1046F000D0070020D8070020D404002018000000B4
:10470000940500204000000000000000DC050000CF
:1047100030313233343536373839414243444546F7
:104720000148804701480047772900007D46000086
:104730007047000000000000C44600002400002074
:104740006170705F627574746F6E00006170705F8D
:1047500074696D657200000000000000F40700201D
:10476000E52F000090FFFFFF000000001480000014
:1047700091420000AB420000A94200003C25733E7C
:104780002025733A20000000736F72746C69737493
:104790000000000000000000000000000000000019
:1047A0000338FDD870470000000000000000000042
:1047B0000338FDD870470000636C6F636B00000026
:1047C0006572726F720000007761726E696E6700C9
:1047D000696E666F00000000646562756700000026
:1047E0001B5B306D000000001B5B313B33306D0004
:1047F0001B5B313B33316D001B5B313B33326D0052
:104800001B5B313B33336D001B5B313B33346D003D
:104810001B5B313B33356D001B5B313B33366D0029
:104820001B5B313B33376D002025303278000000B0
:10483000434C4F434B0000004750494F5445000044
:104840000000005000030050554152540000000089
:104850005541525445000000940700200100060015
:1048600000000000617070005052530050574D001E
:10487000590900000D120000FEE7FEE7FEE7FEE723
:10488000FEE7FEE7FEE7FEE7FEE7FEE7FEE7FEE700
:10489000FEE7FEE7FEE7FEE7FEE7FEE7FEE7FEE7F0
:1048A000FEE7FEE7FEE7FEE7FEE7FEE7FEE7FEE7E0
:1048B000FEE7FEE7FEE7FEE7FEE7FEE7600B00101F
:1048C00001401100040000C0014000014320000C21
:1048D0006108110143FF000421011003C0470000DB
:1048E000C80412D00412D80412E00412E80412F032
:1048F0000412F80410030048000008041210041207
:10490000180412200480080090D003A21C000001AB
:1049100000014343410D123D0852590CF00108417A
:05492000410001613CB3
:040000050000467D34
:00000001FF
